{
	"a.sol": {
		"VotingSystem": {
			"abi": [
				{
					"inputs": [
						{
							"internalType": "string",
							"name": "_name",
							"type": "string"
						}
					],
					"name": "addCandidate",
					"outputs": [],
					"stateMutability": "nonpayable",
					"type": "function"
				},
				{
					"inputs": [
						{
							"internalType": "uint256",
							"name": "",
							"type": "uint256"
						}
					],
					"name": "candidates",
					"outputs": [
						{
							"internalType": "string",
							"name": "name",
							"type": "string"
						},
						{
							"internalType": "uint256",
							"name": "voteCount",
							"type": "uint256"
						}
					],
					"stateMutability": "view",
					"type": "function"
				},
				{
					"inputs": [],
					"name": "getCandidateCount",
					"outputs": [
						{
							"internalType": "uint256",
							"name": "",
							"type": "uint256"
						}
					],
					"stateMutability": "view",
					"type": "function"
				},
				{
					"inputs": [
						{
							"internalType": "uint256",
							"name": "_candidateId",
							"type": "uint256"
						}
					],
					"name": "getVoteCount",
					"outputs": [
						{
							"internalType": "uint256",
							"name": "",
							"type": "uint256"
						}
					],
					"stateMutability": "view",
					"type": "function"
				},
				{
					"inputs": [
						{
							"internalType": "uint256",
							"name": "_candidateId",
							"type": "uint256"
						}
					],
					"name": "vote",
					"outputs": [],
					"stateMutability": "nonpayable",
					"type": "function"
				},
				{
					"inputs": [
						{
							"internalType": "address",
							"name": "",
							"type": "address"
						}
					],
					"name": "voters",
					"outputs": [
						{
							"internalType": "bool",
							"name": "hasVoted",
							"type": "bool"
						},
						{
							"internalType": "uint256",
							"name": "candidateId",
							"type": "uint256"
						}
					],
					"stateMutability": "view",
					"type": "function"
				}
			],
			"devdoc": {
				"kind": "dev",
				"methods": {},
				"version": 1
			},
			"evm": {
				"assembly": "    /* \"a.sol\":27:1686  contract VotingSystem {... */\n  mstore(0x40, 0x80)\n  callvalue\n  dup1\n  iszero\n  tag_1\n  jumpi\n  0x00\n  dup1\n  revert\ntag_1:\n  pop\n  dataSize(sub_0)\n  dup1\n  dataOffset(sub_0)\n  0x00\n  codecopy\n  0x00\n  return\nstop\n\nsub_0: assembly {\n        /* \"a.sol\":27:1686  contract VotingSystem {... */\n      mstore(0x40, 0x80)\n      callvalue\n      dup1\n      iszero\n      tag_1\n      jumpi\n      0x00\n      dup1\n      revert\n    tag_1:\n      pop\n      jumpi(tag_2, lt(calldatasize, 0x04))\n      shr(0xe0, calldataload(0x00))\n      dup1\n      0x0121b93f\n      eq\n      tag_3\n      jumpi\n      dup1\n      0x30a56347\n      eq\n      tag_4\n      jumpi\n      dup1\n      0x3477ee2e\n      eq\n      tag_5\n      jumpi\n      dup1\n      0x462e91ec\n      eq\n      tag_6\n      jumpi\n      dup1\n      0xa3ec138d\n      eq\n      tag_7\n      jumpi\n      dup1\n      0xb2c2f2e8\n      eq\n      tag_8\n      jumpi\n    tag_2:\n      0x00\n      dup1\n      revert\n        /* \"a.sol\":1217:1457  function vote(uint256 _candidateId) public hasNotVoted validCandidate(_candidateId) {... */\n    tag_3:\n      tag_9\n      0x04\n      dup1\n      calldatasize\n      sub\n      dup2\n      add\n      swap1\n      tag_10\n      swap2\n      swap1\n      tag_11\n      jump\t// in\n    tag_10:\n      tag_12\n      jump\t// in\n    tag_9:\n      stop\n        /* \"a.sol\":1059:1161  function getCandidateCount() public view returns (uint256) {... */\n    tag_4:\n      tag_13\n      tag_14\n      jump\t// in\n    tag_13:\n      mload(0x40)\n      tag_15\n      swap2\n      swap1\n      tag_16\n      jump\t// in\n    tag_15:\n      mload(0x40)\n      dup1\n      swap2\n      sub\n      swap1\n      return\n        /* \"a.sol\":332:361  Candidate[] public candidates */\n    tag_5:\n      tag_17\n      0x04\n      dup1\n      calldatasize\n      sub\n      dup2\n      add\n      swap1\n      tag_18\n      swap2\n      swap1\n      tag_11\n      jump\t// in\n    tag_18:\n      tag_19\n      jump\t// in\n    tag_17:\n      mload(0x40)\n      tag_20\n      swap3\n      swap2\n      swap1\n      tag_21\n      jump\t// in\n    tag_20:\n      mload(0x40)\n      dup1\n      swap2\n      sub\n      swap1\n      return\n        /* \"a.sol\":891:996  function addCandidate(string memory _name) public {... */\n    tag_6:\n      tag_22\n      0x04\n      dup1\n      calldatasize\n      sub\n      dup2\n      add\n      swap1\n      tag_23\n      swap2\n      swap1\n      tag_24\n      jump\t// in\n    tag_23:\n      tag_25\n      jump\t// in\n    tag_22:\n      stop\n        /* \"a.sol\":421:460  mapping(address => Voter) public voters */\n    tag_7:\n      tag_26\n      0x04\n      dup1\n      calldatasize\n      sub\n      dup2\n      add\n      swap1\n      tag_27\n      swap2\n      swap1\n      tag_28\n      jump\t// in\n    tag_27:\n      tag_29\n      jump\t// in\n    tag_26:\n      mload(0x40)\n      tag_30\n      swap3\n      swap2\n      swap1\n      tag_31\n      jump\t// in\n    tag_30:\n      mload(0x40)\n      dup1\n      swap2\n      sub\n      swap1\n      return\n        /* \"a.sol\":1520:1683  function getVoteCount(uint256 _candidateId) public view validCandidate(_candidateId) returns (uint256) {... */\n    tag_8:\n      tag_32\n      0x04\n      dup1\n      calldatasize\n      sub\n      dup2\n      add\n      swap1\n      tag_33\n      swap2\n      swap1\n      tag_11\n      jump\t// in\n    tag_33:\n      tag_34\n      jump\t// in\n    tag_32:\n      mload(0x40)\n      tag_35\n      swap2\n      swap1\n      tag_16\n      jump\t// in\n    tag_35:\n      mload(0x40)\n      dup1\n      swap2\n      sub\n      swap1\n      return\n        /* \"a.sol\":1217:1457  function vote(uint256 _candidateId) public hasNotVoted validCandidate(_candidateId) {... */\n    tag_12:\n        /* \"a.sol\":566:572  voters */\n      0x01\n        /* \"a.sol\":566:584  voters[msg.sender] */\n      0x00\n        /* \"a.sol\":573:583  msg.sender */\n      caller\n        /* \"a.sol\":566:584  voters[msg.sender] */\n      0xffffffffffffffffffffffffffffffffffffffff\n      and\n      0xffffffffffffffffffffffffffffffffffffffff\n      and\n      dup2\n      mstore\n      0x20\n      add\n      swap1\n      dup2\n      mstore\n      0x20\n      add\n      0x00\n      keccak256\n        /* \"a.sol\":566:593  voters[msg.sender].hasVoted */\n      0x00\n      add\n      0x00\n      swap1\n      sload\n      swap1\n      0x0100\n      exp\n      swap1\n      div\n      0xff\n      and\n        /* \"a.sol\":565:593  !voters[msg.sender].hasVoted */\n      iszero\n        /* \"a.sol\":557:621  require(!voters[msg.sender].hasVoted, \"You have already voted.\") */\n      tag_37\n      jumpi\n      mload(0x40)\n      0x08c379a000000000000000000000000000000000000000000000000000000000\n      dup2\n      mstore\n      0x04\n      add\n      tag_38\n      swap1\n      tag_39\n      jump\t// in\n    tag_38:\n      mload(0x40)\n      dup1\n      swap2\n      sub\n      swap1\n      revert\n    tag_37:\n        /* \"a.sol\":1287:1299  _candidateId */\n      dup1\n        /* \"a.sol\":784:794  candidates */\n      0x00\n        /* \"a.sol\":784:801  candidates.length */\n      dup1\n      sload\n      swap1\n      pop\n        /* \"a.sol\":769:781  _candidateId */\n      dup2\n        /* \"a.sol\":769:801  _candidateId < candidates.length */\n      lt\n        /* \"a.sol\":761:827  require(_candidateId < candidates.length, \"Invalid candidate ID.\") */\n      tag_41\n      jumpi\n      mload(0x40)\n      0x08c379a000000000000000000000000000000000000000000000000000000000\n      dup2\n      mstore\n      0x04\n      add\n      tag_42\n      swap1\n      tag_43\n      jump\t// in\n    tag_42:\n      mload(0x40)\n      dup1\n      swap2\n      sub\n      swap1\n      revert\n    tag_41:\n        /* \"a.sol\":1342:1346  true */\n      0x01\n        /* \"a.sol\":1312:1318  voters */\n      dup1\n        /* \"a.sol\":1312:1330  voters[msg.sender] */\n      0x00\n        /* \"a.sol\":1319:1329  msg.sender */\n      caller\n        /* \"a.sol\":1312:1330  voters[msg.sender] */\n      0xffffffffffffffffffffffffffffffffffffffff\n      and\n      0xffffffffffffffffffffffffffffffffffffffff\n      and\n      dup2\n      mstore\n      0x20\n      add\n      swap1\n      dup2\n      mstore\n      0x20\n      add\n      0x00\n      keccak256\n        /* \"a.sol\":1312:1339  voters[msg.sender].hasVoted */\n      0x00\n      add\n      0x00\n        /* \"a.sol\":1312:1346  voters[msg.sender].hasVoted = true */\n      0x0100\n      exp\n      dup2\n      sload\n      dup2\n      0xff\n      mul\n      not\n      and\n      swap1\n      dup4\n      iszero\n      iszero\n      mul\n      or\n      swap1\n      sstore\n      pop\n        /* \"a.sol\":1390:1402  _candidateId */\n      dup2\n        /* \"a.sol\":1357:1363  voters */\n      0x01\n        /* \"a.sol\":1357:1375  voters[msg.sender] */\n      0x00\n        /* \"a.sol\":1364:1374  msg.sender */\n      caller\n        /* \"a.sol\":1357:1375  voters[msg.sender] */\n      0xffffffffffffffffffffffffffffffffffffffff\n      and\n      0xffffffffffffffffffffffffffffffffffffffff\n      and\n      dup2\n      mstore\n      0x20\n      add\n      swap1\n      dup2\n      mstore\n      0x20\n      add\n      0x00\n      keccak256\n        /* \"a.sol\":1357:1387  voters[msg.sender].candidateId */\n      0x01\n      add\n        /* \"a.sol\":1357:1402  voters[msg.sender].candidateId = _candidateId */\n      dup2\n      swap1\n      sstore\n      pop\n        /* \"a.sol\":1413:1423  candidates */\n      0x00\n        /* \"a.sol\":1424:1436  _candidateId */\n      dup3\n        /* \"a.sol\":1413:1437  candidates[_candidateId] */\n      dup2\n      sload\n      dup2\n      lt\n      tag_45\n      jumpi\n      tag_46\n      tag_47\n      jump\t// in\n    tag_46:\n    tag_45:\n      swap1\n      0x00\n      mstore\n      keccak256(0x00, 0x20)\n      swap1\n      0x02\n      mul\n      add\n        /* \"a.sol\":1413:1447  candidates[_candidateId].voteCount */\n      0x01\n      add\n      0x00\n        /* \"a.sol\":1413:1449  candidates[_candidateId].voteCount++ */\n      dup2\n      sload\n      dup1\n      swap3\n      swap2\n      swap1\n      tag_49\n      swap1\n      tag_50\n      jump\t// in\n    tag_49:\n      swap2\n      swap1\n      pop\n      sstore\n      pop\n        /* \"a.sol\":632:633  _ */\n      pop\n        /* \"a.sol\":1217:1457  function vote(uint256 _candidateId) public hasNotVoted validCandidate(_candidateId) {... */\n      pop\n      jump\t// out\n        /* \"a.sol\":1059:1161  function getCandidateCount() public view returns (uint256) {... */\n    tag_14:\n        /* \"a.sol\":1109:1116  uint256 */\n      0x00\n        /* \"a.sol\":1136:1146  candidates */\n      dup1\n        /* \"a.sol\":1136:1153  candidates.length */\n      dup1\n      sload\n      swap1\n      pop\n        /* \"a.sol\":1129:1153  return candidates.length */\n      swap1\n      pop\n        /* \"a.sol\":1059:1161  function getCandidateCount() public view returns (uint256) {... */\n      swap1\n      jump\t// out\n        /* \"a.sol\":332:361  Candidate[] public candidates */\n    tag_19:\n      0x00\n      dup2\n      dup2\n      sload\n      dup2\n      lt\n      tag_52\n      jumpi\n      0x00\n      dup1\n      revert\n    tag_52:\n      swap1\n      0x00\n      mstore\n      keccak256(0x00, 0x20)\n      swap1\n      0x02\n      mul\n      add\n      0x00\n      swap2\n      pop\n      swap1\n      pop\n      dup1\n      0x00\n      add\n      dup1\n      sload\n      tag_54\n      swap1\n      tag_55\n      jump\t// in\n    tag_54:\n      dup1\n      0x1f\n      add\n      0x20\n      dup1\n      swap2\n      div\n      mul\n      0x20\n      add\n      mload(0x40)\n      swap1\n      dup2\n      add\n      0x40\n      mstore\n      dup1\n      swap3\n      swap2\n      swap1\n      dup2\n      dup2\n      mstore\n      0x20\n      add\n      dup3\n      dup1\n      sload\n      tag_56\n      swap1\n      tag_55\n      jump\t// in\n    tag_56:\n      dup1\n      iszero\n      tag_57\n      jumpi\n      dup1\n      0x1f\n      lt\n      tag_58\n      jumpi\n      0x0100\n      dup1\n      dup4\n      sload\n      div\n      mul\n      dup4\n      mstore\n      swap2\n      0x20\n      add\n      swap2\n      jump(tag_57)\n    tag_58:\n      dup3\n      add\n      swap2\n      swap1\n      0x00\n      mstore\n      keccak256(0x00, 0x20)\n      swap1\n    tag_59:\n      dup2\n      sload\n      dup2\n      mstore\n      swap1\n      0x01\n      add\n      swap1\n      0x20\n      add\n      dup1\n      dup4\n      gt\n      tag_59\n      jumpi\n      dup3\n      swap1\n      sub\n      0x1f\n      and\n      dup3\n      add\n      swap2\n    tag_57:\n      pop\n      pop\n      pop\n      pop\n      pop\n      swap1\n      dup1\n      0x01\n      add\n      sload\n      swap1\n      pop\n      dup3\n      jump\t// out\n        /* \"a.sol\":891:996  function addCandidate(string memory _name) public {... */\n    tag_25:\n        /* \"a.sol\":952:962  candidates */\n      0x00\n        /* \"a.sol\":968:987  Candidate(_name, 0) */\n      mload(0x40)\n      dup1\n      0x40\n      add\n      0x40\n      mstore\n      dup1\n        /* \"a.sol\":978:983  _name */\n      dup4\n        /* \"a.sol\":968:987  Candidate(_name, 0) */\n      dup2\n      mstore\n      0x20\n      add\n        /* \"a.sol\":985:986  0 */\n      0x00\n        /* \"a.sol\":968:987  Candidate(_name, 0) */\n      dup2\n      mstore\n      pop\n        /* \"a.sol\":952:988  candidates.push(Candidate(_name, 0)) */\n      swap1\n      dup1\n      0x01\n      dup2\n      sload\n      add\n      dup1\n      dup3\n      sstore\n      dup1\n      swap2\n      pop\n      pop\n      0x01\n      swap1\n      sub\n      swap1\n      0x00\n      mstore\n      keccak256(0x00, 0x20)\n      swap1\n      0x02\n      mul\n      add\n      0x00\n      swap1\n      swap2\n      swap1\n      swap2\n      swap1\n      swap2\n      pop\n      0x00\n      dup3\n      add\n      mload\n      dup2\n      0x00\n      add\n      swap1\n      dup2\n      tag_62\n      swap2\n      swap1\n      tag_63\n      jump\t// in\n    tag_62:\n      pop\n      0x20\n      dup3\n      add\n      mload\n      dup2\n      0x01\n      add\n      sstore\n      pop\n      pop\n        /* \"a.sol\":891:996  function addCandidate(string memory _name) public {... */\n      pop\n      jump\t// out\n        /* \"a.sol\":421:460  mapping(address => Voter) public voters */\n    tag_29:\n      mstore(0x20, 0x01)\n      dup1\n      0x00\n      mstore\n      keccak256(0x00, 0x40)\n      0x00\n      swap2\n      pop\n      swap1\n      pop\n      dup1\n      0x00\n      add\n      0x00\n      swap1\n      sload\n      swap1\n      0x0100\n      exp\n      swap1\n      div\n      0xff\n      and\n      swap1\n      dup1\n      0x01\n      add\n      sload\n      swap1\n      pop\n      dup3\n      jump\t// out\n        /* \"a.sol\":1520:1683  function getVoteCount(uint256 _candidateId) public view validCandidate(_candidateId) returns (uint256) {... */\n    tag_34:\n        /* \"a.sol\":1614:1621  uint256 */\n      0x00\n        /* \"a.sol\":1591:1603  _candidateId */\n      dup2\n        /* \"a.sol\":784:794  candidates */\n      0x00\n        /* \"a.sol\":784:801  candidates.length */\n      dup1\n      sload\n      swap1\n      pop\n        /* \"a.sol\":769:781  _candidateId */\n      dup2\n        /* \"a.sol\":769:801  _candidateId < candidates.length */\n      lt\n        /* \"a.sol\":761:827  require(_candidateId < candidates.length, \"Invalid candidate ID.\") */\n      tag_65\n      jumpi\n      mload(0x40)\n      0x08c379a000000000000000000000000000000000000000000000000000000000\n      dup2\n      mstore\n      0x04\n      add\n      tag_66\n      swap1\n      tag_43\n      jump\t// in\n    tag_66:\n      mload(0x40)\n      dup1\n      swap2\n      sub\n      swap1\n      revert\n    tag_65:\n        /* \"a.sol\":1641:1651  candidates */\n      0x00\n        /* \"a.sol\":1652:1664  _candidateId */\n      dup4\n        /* \"a.sol\":1641:1665  candidates[_candidateId] */\n      dup2\n      sload\n      dup2\n      lt\n      tag_68\n      jumpi\n      tag_69\n      tag_47\n      jump\t// in\n    tag_69:\n    tag_68:\n      swap1\n      0x00\n      mstore\n      keccak256(0x00, 0x20)\n      swap1\n      0x02\n      mul\n      add\n        /* \"a.sol\":1641:1675  candidates[_candidateId].voteCount */\n      0x01\n      add\n      sload\n        /* \"a.sol\":1634:1675  return candidates[_candidateId].voteCount */\n      swap2\n      pop\n        /* \"a.sol\":1520:1683  function getVoteCount(uint256 _candidateId) public view validCandidate(_candidateId) returns (uint256) {... */\n      pop\n      swap2\n      swap1\n      pop\n      jump\t// out\n        /* \"#utility.yul\":7:82   */\n    tag_71:\n        /* \"#utility.yul\":40:46   */\n      0x00\n        /* \"#utility.yul\":73:75   */\n      0x40\n        /* \"#utility.yul\":67:76   */\n      mload\n        /* \"#utility.yul\":57:76   */\n      swap1\n      pop\n        /* \"#utility.yul\":7:82   */\n      swap1\n      jump\t// out\n        /* \"#utility.yul\":88:205   */\n    tag_72:\n        /* \"#utility.yul\":197:198   */\n      0x00\n        /* \"#utility.yul\":194:195   */\n      dup1\n        /* \"#utility.yul\":187:199   */\n      revert\n        /* \"#utility.yul\":211:328   */\n    tag_73:\n        /* \"#utility.yul\":320:321   */\n      0x00\n        /* \"#utility.yul\":317:318   */\n      dup1\n        /* \"#utility.yul\":310:322   */\n      revert\n        /* \"#utility.yul\":334:411   */\n    tag_74:\n        /* \"#utility.yul\":371:378   */\n      0x00\n        /* \"#utility.yul\":400:405   */\n      dup2\n        /* \"#utility.yul\":389:405   */\n      swap1\n      pop\n        /* \"#utility.yul\":334:411   */\n      swap2\n      swap1\n      pop\n      jump\t// out\n        /* \"#utility.yul\":417:539   */\n    tag_75:\n        /* \"#utility.yul\":490:514   */\n      tag_125\n        /* \"#utility.yul\":508:513   */\n      dup2\n        /* \"#utility.yul\":490:514   */\n      tag_74\n      jump\t// in\n    tag_125:\n        /* \"#utility.yul\":483:488   */\n      dup2\n        /* \"#utility.yul\":480:515   */\n      eq\n        /* \"#utility.yul\":470:533   */\n      tag_126\n      jumpi\n        /* \"#utility.yul\":529:530   */\n      0x00\n        /* \"#utility.yul\":526:527   */\n      dup1\n        /* \"#utility.yul\":519:531   */\n      revert\n        /* \"#utility.yul\":470:533   */\n    tag_126:\n        /* \"#utility.yul\":417:539   */\n      pop\n      jump\t// out\n        /* \"#utility.yul\":545:684   */\n    tag_76:\n        /* \"#utility.yul\":591:596   */\n      0x00\n        /* \"#utility.yul\":629:635   */\n      dup2\n        /* \"#utility.yul\":616:636   */\n      calldataload\n        /* \"#utility.yul\":607:636   */\n      swap1\n      pop\n        /* \"#utility.yul\":645:678   */\n      tag_128\n        /* \"#utility.yul\":672:677   */\n      dup2\n        /* \"#utility.yul\":645:678   */\n      tag_75\n      jump\t// in\n    tag_128:\n        /* \"#utility.yul\":545:684   */\n      swap3\n      swap2\n      pop\n      pop\n      jump\t// out\n        /* \"#utility.yul\":690:1019   */\n    tag_11:\n        /* \"#utility.yul\":749:755   */\n      0x00\n        /* \"#utility.yul\":798:800   */\n      0x20\n        /* \"#utility.yul\":786:795   */\n      dup3\n        /* \"#utility.yul\":777:784   */\n      dup5\n        /* \"#utility.yul\":773:796   */\n      sub\n        /* \"#utility.yul\":769:801   */\n      slt\n        /* \"#utility.yul\":766:885   */\n      iszero\n      tag_130\n      jumpi\n        /* \"#utility.yul\":804:883   */\n      tag_131\n      tag_72\n      jump\t// in\n    tag_131:\n        /* \"#utility.yul\":766:885   */\n    tag_130:\n        /* \"#utility.yul\":924:925   */\n      0x00\n        /* \"#utility.yul\":949:1002   */\n      tag_132\n        /* \"#utility.yul\":994:1001   */\n      dup5\n        /* \"#utility.yul\":985:991   */\n      dup3\n        /* \"#utility.yul\":974:983   */\n      dup6\n        /* \"#utility.yul\":970:992   */\n      add\n        /* \"#utility.yul\":949:1002   */\n      tag_76\n      jump\t// in\n    tag_132:\n        /* \"#utility.yul\":939:1002   */\n      swap2\n      pop\n        /* \"#utility.yul\":895:1012   */\n      pop\n        /* \"#utility.yul\":690:1019   */\n      swap3\n      swap2\n      pop\n      pop\n      jump\t// out\n        /* \"#utility.yul\":1025:1143   */\n    tag_77:\n        /* \"#utility.yul\":1112:1136   */\n      tag_134\n        /* \"#utility.yul\":1130:1135   */\n      dup2\n        /* \"#utility.yul\":1112:1136   */\n      tag_74\n      jump\t// in\n    tag_134:\n        /* \"#utility.yul\":1107:1110   */\n      dup3\n        /* \"#utility.yul\":1100:1137   */\n      mstore\n        /* \"#utility.yul\":1025:1143   */\n      pop\n      pop\n      jump\t// out\n        /* \"#utility.yul\":1149:1371   */\n    tag_16:\n        /* \"#utility.yul\":1242:1246   */\n      0x00\n        /* \"#utility.yul\":1280:1282   */\n      0x20\n        /* \"#utility.yul\":1269:1278   */\n      dup3\n        /* \"#utility.yul\":1265:1283   */\n      add\n        /* \"#utility.yul\":1257:1283   */\n      swap1\n      pop\n        /* \"#utility.yul\":1293:1364   */\n      tag_136\n        /* \"#utility.yul\":1361:1362   */\n      0x00\n        /* \"#utility.yul\":1350:1359   */\n      dup4\n        /* \"#utility.yul\":1346:1363   */\n      add\n        /* \"#utility.yul\":1337:1343   */\n      dup5\n        /* \"#utility.yul\":1293:1364   */\n      tag_77\n      jump\t// in\n    tag_136:\n        /* \"#utility.yul\":1149:1371   */\n      swap3\n      swap2\n      pop\n      pop\n      jump\t// out\n        /* \"#utility.yul\":1377:1476   */\n    tag_78:\n        /* \"#utility.yul\":1429:1435   */\n      0x00\n        /* \"#utility.yul\":1463:1468   */\n      dup2\n        /* \"#utility.yul\":1457:1469   */\n      mload\n        /* \"#utility.yul\":1447:1469   */\n      swap1\n      pop\n        /* \"#utility.yul\":1377:1476   */\n      swap2\n      swap1\n      pop\n      jump\t// out\n        /* \"#utility.yul\":1482:1651   */\n    tag_79:\n        /* \"#utility.yul\":1566:1577   */\n      0x00\n        /* \"#utility.yul\":1600:1606   */\n      dup3\n        /* \"#utility.yul\":1595:1598   */\n      dup3\n        /* \"#utility.yul\":1588:1607   */\n      mstore\n        /* \"#utility.yul\":1640:1644   */\n      0x20\n        /* \"#utility.yul\":1635:1638   */\n      dup3\n        /* \"#utility.yul\":1631:1645   */\n      add\n        /* \"#utility.yul\":1616:1645   */\n      swap1\n      pop\n        /* \"#utility.yul\":1482:1651   */\n      swap3\n      swap2\n      pop\n      pop\n      jump\t// out\n        /* \"#utility.yul\":1657:1903   */\n    tag_80:\n        /* \"#utility.yul\":1738:1739   */\n      0x00\n        /* \"#utility.yul\":1748:1861   */\n    tag_140:\n        /* \"#utility.yul\":1762:1768   */\n      dup4\n        /* \"#utility.yul\":1759:1760   */\n      dup2\n        /* \"#utility.yul\":1756:1769   */\n      lt\n        /* \"#utility.yul\":1748:1861   */\n      iszero\n      tag_142\n      jumpi\n        /* \"#utility.yul\":1847:1848   */\n      dup1\n        /* \"#utility.yul\":1842:1845   */\n      dup3\n        /* \"#utility.yul\":1838:1849   */\n      add\n        /* \"#utility.yul\":1832:1850   */\n      mload\n        /* \"#utility.yul\":1828:1829   */\n      dup2\n        /* \"#utility.yul\":1823:1826   */\n      dup5\n        /* \"#utility.yul\":1819:1830   */\n      add\n        /* \"#utility.yul\":1812:1851   */\n      mstore\n        /* \"#utility.yul\":1784:1786   */\n      0x20\n        /* \"#utility.yul\":1781:1782   */\n      dup2\n        /* \"#utility.yul\":1777:1787   */\n      add\n        /* \"#utility.yul\":1772:1787   */\n      swap1\n      pop\n        /* \"#utility.yul\":1748:1861   */\n      jump(tag_140)\n    tag_142:\n        /* \"#utility.yul\":1895:1896   */\n      0x00\n        /* \"#utility.yul\":1886:1892   */\n      dup5\n        /* \"#utility.yul\":1881:1884   */\n      dup5\n        /* \"#utility.yul\":1877:1893   */\n      add\n        /* \"#utility.yul\":1870:1897   */\n      mstore\n        /* \"#utility.yul\":1719:1903   */\n      pop\n        /* \"#utility.yul\":1657:1903   */\n      pop\n      pop\n      pop\n      jump\t// out\n        /* \"#utility.yul\":1909:2011   */\n    tag_81:\n        /* \"#utility.yul\":1950:1956   */\n      0x00\n        /* \"#utility.yul\":2001:2003   */\n      0x1f\n        /* \"#utility.yul\":1997:2004   */\n      not\n        /* \"#utility.yul\":1992:1994   */\n      0x1f\n        /* \"#utility.yul\":1985:1990   */\n      dup4\n        /* \"#utility.yul\":1981:1995   */\n      add\n        /* \"#utility.yul\":1977:2005   */\n      and\n        /* \"#utility.yul\":1967:2005   */\n      swap1\n      pop\n        /* \"#utility.yul\":1909:2011   */\n      swap2\n      swap1\n      pop\n      jump\t// out\n        /* \"#utility.yul\":2017:2394   */\n    tag_82:\n        /* \"#utility.yul\":2105:2108   */\n      0x00\n        /* \"#utility.yul\":2133:2172   */\n      tag_145\n        /* \"#utility.yul\":2166:2171   */\n      dup3\n        /* \"#utility.yul\":2133:2172   */\n      tag_78\n      jump\t// in\n    tag_145:\n        /* \"#utility.yul\":2188:2259   */\n      tag_146\n        /* \"#utility.yul\":2252:2258   */\n      dup2\n        /* \"#utility.yul\":2247:2250   */\n      dup6\n        /* \"#utility.yul\":2188:2259   */\n      tag_79\n      jump\t// in\n    tag_146:\n        /* \"#utility.yul\":2181:2259   */\n      swap4\n      pop\n        /* \"#utility.yul\":2268:2333   */\n      tag_147\n        /* \"#utility.yul\":2326:2332   */\n      dup2\n        /* \"#utility.yul\":2321:2324   */\n      dup6\n        /* \"#utility.yul\":2314:2318   */\n      0x20\n        /* \"#utility.yul\":2307:2312   */\n      dup7\n        /* \"#utility.yul\":2303:2319   */\n      add\n        /* \"#utility.yul\":2268:2333   */\n      tag_80\n      jump\t// in\n    tag_147:\n        /* \"#utility.yul\":2358:2387   */\n      tag_148\n        /* \"#utility.yul\":2380:2386   */\n      dup2\n        /* \"#utility.yul\":2358:2387   */\n      tag_81\n      jump\t// in\n    tag_148:\n        /* \"#utility.yul\":2353:2356   */\n      dup5\n        /* \"#utility.yul\":2349:2388   */\n      add\n        /* \"#utility.yul\":2342:2388   */\n      swap2\n      pop\n        /* \"#utility.yul\":2109:2394   */\n      pop\n        /* \"#utility.yul\":2017:2394   */\n      swap3\n      swap2\n      pop\n      pop\n      jump\t// out\n        /* \"#utility.yul\":2400:2823   */\n    tag_21:\n        /* \"#utility.yul\":2541:2545   */\n      0x00\n        /* \"#utility.yul\":2579:2581   */\n      0x40\n        /* \"#utility.yul\":2568:2577   */\n      dup3\n        /* \"#utility.yul\":2564:2582   */\n      add\n        /* \"#utility.yul\":2556:2582   */\n      swap1\n      pop\n        /* \"#utility.yul\":2628:2637   */\n      dup2\n        /* \"#utility.yul\":2622:2626   */\n      dup2\n        /* \"#utility.yul\":2618:2638   */\n      sub\n        /* \"#utility.yul\":2614:2615   */\n      0x00\n        /* \"#utility.yul\":2603:2612   */\n      dup4\n        /* \"#utility.yul\":2599:2616   */\n      add\n        /* \"#utility.yul\":2592:2639   */\n      mstore\n        /* \"#utility.yul\":2656:2734   */\n      tag_150\n        /* \"#utility.yul\":2729:2733   */\n      dup2\n        /* \"#utility.yul\":2720:2726   */\n      dup6\n        /* \"#utility.yul\":2656:2734   */\n      tag_82\n      jump\t// in\n    tag_150:\n        /* \"#utility.yul\":2648:2734   */\n      swap1\n      pop\n        /* \"#utility.yul\":2744:2816   */\n      tag_151\n        /* \"#utility.yul\":2812:2814   */\n      0x20\n        /* \"#utility.yul\":2801:2810   */\n      dup4\n        /* \"#utility.yul\":2797:2815   */\n      add\n        /* \"#utility.yul\":2788:2794   */\n      dup5\n        /* \"#utility.yul\":2744:2816   */\n      tag_77\n      jump\t// in\n    tag_151:\n        /* \"#utility.yul\":2400:2823   */\n      swap4\n      swap3\n      pop\n      pop\n      pop\n      jump\t// out\n        /* \"#utility.yul\":2829:2946   */\n    tag_83:\n        /* \"#utility.yul\":2938:2939   */\n      0x00\n        /* \"#utility.yul\":2935:2936   */\n      dup1\n        /* \"#utility.yul\":2928:2940   */\n      revert\n        /* \"#utility.yul\":2952:3069   */\n    tag_84:\n        /* \"#utility.yul\":3061:3062   */\n      0x00\n        /* \"#utility.yul\":3058:3059   */\n      dup1\n        /* \"#utility.yul\":3051:3063   */\n      revert\n        /* \"#utility.yul\":3075:3255   */\n    tag_85:\n        /* \"#utility.yul\":3123:3200   */\n      0x4e487b7100000000000000000000000000000000000000000000000000000000\n        /* \"#utility.yul\":3120:3121   */\n      0x00\n        /* \"#utility.yul\":3113:3201   */\n      mstore\n        /* \"#utility.yul\":3220:3224   */\n      0x41\n        /* \"#utility.yul\":3217:3218   */\n      0x04\n        /* \"#utility.yul\":3210:3225   */\n      mstore\n        /* \"#utility.yul\":3244:3248   */\n      0x24\n        /* \"#utility.yul\":3241:3242   */\n      0x00\n        /* \"#utility.yul\":3234:3249   */\n      revert\n        /* \"#utility.yul\":3261:3542   */\n    tag_86:\n        /* \"#utility.yul\":3344:3371   */\n      tag_156\n        /* \"#utility.yul\":3366:3370   */\n      dup3\n        /* \"#utility.yul\":3344:3371   */\n      tag_81\n      jump\t// in\n    tag_156:\n        /* \"#utility.yul\":3336:3342   */\n      dup2\n        /* \"#utility.yul\":3332:3372   */\n      add\n        /* \"#utility.yul\":3474:3480   */\n      dup2\n        /* \"#utility.yul\":3462:3472   */\n      dup2\n        /* \"#utility.yul\":3459:3481   */\n      lt\n        /* \"#utility.yul\":3438:3456   */\n      0xffffffffffffffff\n        /* \"#utility.yul\":3426:3436   */\n      dup3\n        /* \"#utility.yul\":3423:3457   */\n      gt\n        /* \"#utility.yul\":3420:3482   */\n      or\n        /* \"#utility.yul\":3417:3505   */\n      iszero\n      tag_157\n      jumpi\n        /* \"#utility.yul\":3485:3503   */\n      tag_158\n      tag_85\n      jump\t// in\n    tag_158:\n        /* \"#utility.yul\":3417:3505   */\n    tag_157:\n        /* \"#utility.yul\":3525:3535   */\n      dup1\n        /* \"#utility.yul\":3521:3523   */\n      0x40\n        /* \"#utility.yul\":3514:3536   */\n      mstore\n        /* \"#utility.yul\":3304:3542   */\n      pop\n        /* \"#utility.yul\":3261:3542   */\n      pop\n      pop\n      jump\t// out\n        /* \"#utility.yul\":3548:3677   */\n    tag_87:\n        /* \"#utility.yul\":3582:3588   */\n      0x00\n        /* \"#utility.yul\":3609:3629   */\n      tag_160\n      tag_71\n      jump\t// in\n    tag_160:\n        /* \"#utility.yul\":3599:3629   */\n      swap1\n      pop\n        /* \"#utility.yul\":3638:3671   */\n      tag_161\n        /* \"#utility.yul\":3666:3670   */\n      dup3\n        /* \"#utility.yul\":3658:3664   */\n      dup3\n        /* \"#utility.yul\":3638:3671   */\n      tag_86\n      jump\t// in\n    tag_161:\n        /* \"#utility.yul\":3548:3677   */\n      swap2\n      swap1\n      pop\n      jump\t// out\n        /* \"#utility.yul\":3683:3991   */\n    tag_88:\n        /* \"#utility.yul\":3745:3749   */\n      0x00\n        /* \"#utility.yul\":3835:3853   */\n      0xffffffffffffffff\n        /* \"#utility.yul\":3827:3833   */\n      dup3\n        /* \"#utility.yul\":3824:3854   */\n      gt\n        /* \"#utility.yul\":3821:3877   */\n      iszero\n      tag_163\n      jumpi\n        /* \"#utility.yul\":3857:3875   */\n      tag_164\n      tag_85\n      jump\t// in\n    tag_164:\n        /* \"#utility.yul\":3821:3877   */\n    tag_163:\n        /* \"#utility.yul\":3895:3924   */\n      tag_165\n        /* \"#utility.yul\":3917:3923   */\n      dup3\n        /* \"#utility.yul\":3895:3924   */\n      tag_81\n      jump\t// in\n    tag_165:\n        /* \"#utility.yul\":3887:3924   */\n      swap1\n      pop\n        /* \"#utility.yul\":3979:3983   */\n      0x20\n        /* \"#utility.yul\":3973:3977   */\n      dup2\n        /* \"#utility.yul\":3969:3984   */\n      add\n        /* \"#utility.yul\":3961:3984   */\n      swap1\n      pop\n        /* \"#utility.yul\":3683:3991   */\n      swap2\n      swap1\n      pop\n      jump\t// out\n        /* \"#utility.yul\":3997:4143   */\n    tag_89:\n        /* \"#utility.yul\":4094:4100   */\n      dup3\n        /* \"#utility.yul\":4089:4092   */\n      dup2\n        /* \"#utility.yul\":4084:4087   */\n      dup4\n        /* \"#utility.yul\":4071:4101   */\n      calldatacopy\n        /* \"#utility.yul\":4135:4136   */\n      0x00\n        /* \"#utility.yul\":4126:4132   */\n      dup4\n        /* \"#utility.yul\":4121:4124   */\n      dup4\n        /* \"#utility.yul\":4117:4133   */\n      add\n        /* \"#utility.yul\":4110:4137   */\n      mstore\n        /* \"#utility.yul\":3997:4143   */\n      pop\n      pop\n      pop\n      jump\t// out\n        /* \"#utility.yul\":4149:4574   */\n    tag_90:\n        /* \"#utility.yul\":4227:4232   */\n      0x00\n        /* \"#utility.yul\":4252:4318   */\n      tag_168\n        /* \"#utility.yul\":4268:4317   */\n      tag_169\n        /* \"#utility.yul\":4310:4316   */\n      dup5\n        /* \"#utility.yul\":4268:4317   */\n      tag_88\n      jump\t// in\n    tag_169:\n        /* \"#utility.yul\":4252:4318   */\n      tag_87\n      jump\t// in\n    tag_168:\n        /* \"#utility.yul\":4243:4318   */\n      swap1\n      pop\n        /* \"#utility.yul\":4341:4347   */\n      dup3\n        /* \"#utility.yul\":4334:4339   */\n      dup2\n        /* \"#utility.yul\":4327:4348   */\n      mstore\n        /* \"#utility.yul\":4379:4383   */\n      0x20\n        /* \"#utility.yul\":4372:4377   */\n      dup2\n        /* \"#utility.yul\":4368:4384   */\n      add\n        /* \"#utility.yul\":4417:4420   */\n      dup5\n        /* \"#utility.yul\":4408:4414   */\n      dup5\n        /* \"#utility.yul\":4403:4406   */\n      dup5\n        /* \"#utility.yul\":4399:4415   */\n      add\n        /* \"#utility.yul\":4396:4421   */\n      gt\n        /* \"#utility.yul\":4393:4505   */\n      iszero\n      tag_170\n      jumpi\n        /* \"#utility.yul\":4424:4503   */\n      tag_171\n      tag_84\n      jump\t// in\n    tag_171:\n        /* \"#utility.yul\":4393:4505   */\n    tag_170:\n        /* \"#utility.yul\":4514:4568   */\n      tag_172\n        /* \"#utility.yul\":4561:4567   */\n      dup5\n        /* \"#utility.yul\":4556:4559   */\n      dup3\n        /* \"#utility.yul\":4551:4554   */\n      dup6\n        /* \"#utility.yul\":4514:4568   */\n      tag_89\n      jump\t// in\n    tag_172:\n        /* \"#utility.yul\":4233:4574   */\n      pop\n        /* \"#utility.yul\":4149:4574   */\n      swap4\n      swap3\n      pop\n      pop\n      pop\n      jump\t// out\n        /* \"#utility.yul\":4594:4934   */\n    tag_91:\n        /* \"#utility.yul\":4650:4655   */\n      0x00\n        /* \"#utility.yul\":4699:4702   */\n      dup3\n        /* \"#utility.yul\":4692:4696   */\n      0x1f\n        /* \"#utility.yul\":4684:4690   */\n      dup4\n        /* \"#utility.yul\":4680:4697   */\n      add\n        /* \"#utility.yul\":4676:4703   */\n      slt\n        /* \"#utility.yul\":4666:4788   */\n      tag_174\n      jumpi\n        /* \"#utility.yul\":4707:4786   */\n      tag_175\n      tag_83\n      jump\t// in\n    tag_175:\n        /* \"#utility.yul\":4666:4788   */\n    tag_174:\n        /* \"#utility.yul\":4824:4830   */\n      dup2\n        /* \"#utility.yul\":4811:4831   */\n      calldataload\n        /* \"#utility.yul\":4849:4928   */\n      tag_176\n        /* \"#utility.yul\":4924:4927   */\n      dup5\n        /* \"#utility.yul\":4916:4922   */\n      dup3\n        /* \"#utility.yul\":4909:4913   */\n      0x20\n        /* \"#utility.yul\":4901:4907   */\n      dup7\n        /* \"#utility.yul\":4897:4914   */\n      add\n        /* \"#utility.yul\":4849:4928   */\n      tag_90\n      jump\t// in\n    tag_176:\n        /* \"#utility.yul\":4840:4928   */\n      swap2\n      pop\n        /* \"#utility.yul\":4656:4934   */\n      pop\n        /* \"#utility.yul\":4594:4934   */\n      swap3\n      swap2\n      pop\n      pop\n      jump\t// out\n        /* \"#utility.yul\":4940:5449   */\n    tag_24:\n        /* \"#utility.yul\":5009:5015   */\n      0x00\n        /* \"#utility.yul\":5058:5060   */\n      0x20\n        /* \"#utility.yul\":5046:5055   */\n      dup3\n        /* \"#utility.yul\":5037:5044   */\n      dup5\n        /* \"#utility.yul\":5033:5056   */\n      sub\n        /* \"#utility.yul\":5029:5061   */\n      slt\n        /* \"#utility.yul\":5026:5145   */\n      iszero\n      tag_178\n      jumpi\n        /* \"#utility.yul\":5064:5143   */\n      tag_179\n      tag_72\n      jump\t// in\n    tag_179:\n        /* \"#utility.yul\":5026:5145   */\n    tag_178:\n        /* \"#utility.yul\":5212:5213   */\n      0x00\n        /* \"#utility.yul\":5201:5210   */\n      dup3\n        /* \"#utility.yul\":5197:5214   */\n      add\n        /* \"#utility.yul\":5184:5215   */\n      calldataload\n        /* \"#utility.yul\":5242:5260   */\n      0xffffffffffffffff\n        /* \"#utility.yul\":5234:5240   */\n      dup2\n        /* \"#utility.yul\":5231:5261   */\n      gt\n        /* \"#utility.yul\":5228:5345   */\n      iszero\n      tag_180\n      jumpi\n        /* \"#utility.yul\":5264:5343   */\n      tag_181\n      tag_73\n      jump\t// in\n    tag_181:\n        /* \"#utility.yul\":5228:5345   */\n    tag_180:\n        /* \"#utility.yul\":5369:5432   */\n      tag_182\n        /* \"#utility.yul\":5424:5431   */\n      dup5\n        /* \"#utility.yul\":5415:5421   */\n      dup3\n        /* \"#utility.yul\":5404:5413   */\n      dup6\n        /* \"#utility.yul\":5400:5422   */\n      add\n        /* \"#utility.yul\":5369:5432   */\n      tag_91\n      jump\t// in\n    tag_182:\n        /* \"#utility.yul\":5359:5432   */\n      swap2\n      pop\n        /* \"#utility.yul\":5155:5442   */\n      pop\n        /* \"#utility.yul\":4940:5449   */\n      swap3\n      swap2\n      pop\n      pop\n      jump\t// out\n        /* \"#utility.yul\":5455:5581   */\n    tag_92:\n        /* \"#utility.yul\":5492:5499   */\n      0x00\n        /* \"#utility.yul\":5532:5574   */\n      0xffffffffffffffffffffffffffffffffffffffff\n        /* \"#utility.yul\":5525:5530   */\n      dup3\n        /* \"#utility.yul\":5521:5575   */\n      and\n        /* \"#utility.yul\":5510:5575   */\n      swap1\n      pop\n        /* \"#utility.yul\":5455:5581   */\n      swap2\n      swap1\n      pop\n      jump\t// out\n        /* \"#utility.yul\":5587:5683   */\n    tag_93:\n        /* \"#utility.yul\":5624:5631   */\n      0x00\n        /* \"#utility.yul\":5653:5677   */\n      tag_185\n        /* \"#utility.yul\":5671:5676   */\n      dup3\n        /* \"#utility.yul\":5653:5677   */\n      tag_92\n      jump\t// in\n    tag_185:\n        /* \"#utility.yul\":5642:5677   */\n      swap1\n      pop\n        /* \"#utility.yul\":5587:5683   */\n      swap2\n      swap1\n      pop\n      jump\t// out\n        /* \"#utility.yul\":5689:5811   */\n    tag_94:\n        /* \"#utility.yul\":5762:5786   */\n      tag_187\n        /* \"#utility.yul\":5780:5785   */\n      dup2\n        /* \"#utility.yul\":5762:5786   */\n      tag_93\n      jump\t// in\n    tag_187:\n        /* \"#utility.yul\":5755:5760   */\n      dup2\n        /* \"#utility.yul\":5752:5787   */\n      eq\n        /* \"#utility.yul\":5742:5805   */\n      tag_188\n      jumpi\n        /* \"#utility.yul\":5801:5802   */\n      0x00\n        /* \"#utility.yul\":5798:5799   */\n      dup1\n        /* \"#utility.yul\":5791:5803   */\n      revert\n        /* \"#utility.yul\":5742:5805   */\n    tag_188:\n        /* \"#utility.yul\":5689:5811   */\n      pop\n      jump\t// out\n        /* \"#utility.yul\":5817:5956   */\n    tag_95:\n        /* \"#utility.yul\":5863:5868   */\n      0x00\n        /* \"#utility.yul\":5901:5907   */\n      dup2\n        /* \"#utility.yul\":5888:5908   */\n      calldataload\n        /* \"#utility.yul\":5879:5908   */\n      swap1\n      pop\n        /* \"#utility.yul\":5917:5950   */\n      tag_190\n        /* \"#utility.yul\":5944:5949   */\n      dup2\n        /* \"#utility.yul\":5917:5950   */\n      tag_94\n      jump\t// in\n    tag_190:\n        /* \"#utility.yul\":5817:5956   */\n      swap3\n      swap2\n      pop\n      pop\n      jump\t// out\n        /* \"#utility.yul\":5962:6291   */\n    tag_28:\n        /* \"#utility.yul\":6021:6027   */\n      0x00\n        /* \"#utility.yul\":6070:6072   */\n      0x20\n        /* \"#utility.yul\":6058:6067   */\n      dup3\n        /* \"#utility.yul\":6049:6056   */\n      dup5\n        /* \"#utility.yul\":6045:6068   */\n      sub\n        /* \"#utility.yul\":6041:6073   */\n      slt\n        /* \"#utility.yul\":6038:6157   */\n      iszero\n      tag_192\n      jumpi\n        /* \"#utility.yul\":6076:6155   */\n      tag_193\n      tag_72\n      jump\t// in\n    tag_193:\n        /* \"#utility.yul\":6038:6157   */\n    tag_192:\n        /* \"#utility.yul\":6196:6197   */\n      0x00\n        /* \"#utility.yul\":6221:6274   */\n      tag_194\n        /* \"#utility.yul\":6266:6273   */\n      dup5\n        /* \"#utility.yul\":6257:6263   */\n      dup3\n        /* \"#utility.yul\":6246:6255   */\n      dup6\n        /* \"#utility.yul\":6242:6264   */\n      add\n        /* \"#utility.yul\":6221:6274   */\n      tag_95\n      jump\t// in\n    tag_194:\n        /* \"#utility.yul\":6211:6274   */\n      swap2\n      pop\n        /* \"#utility.yul\":6167:6284   */\n      pop\n        /* \"#utility.yul\":5962:6291   */\n      swap3\n      swap2\n      pop\n      pop\n      jump\t// out\n        /* \"#utility.yul\":6297:6387   */\n    tag_96:\n        /* \"#utility.yul\":6331:6338   */\n      0x00\n        /* \"#utility.yul\":6374:6379   */\n      dup2\n        /* \"#utility.yul\":6367:6380   */\n      iszero\n        /* \"#utility.yul\":6360:6381   */\n      iszero\n        /* \"#utility.yul\":6349:6381   */\n      swap1\n      pop\n        /* \"#utility.yul\":6297:6387   */\n      swap2\n      swap1\n      pop\n      jump\t// out\n        /* \"#utility.yul\":6393:6502   */\n    tag_97:\n        /* \"#utility.yul\":6474:6495   */\n      tag_197\n        /* \"#utility.yul\":6489:6494   */\n      dup2\n        /* \"#utility.yul\":6474:6495   */\n      tag_96\n      jump\t// in\n    tag_197:\n        /* \"#utility.yul\":6469:6472   */\n      dup3\n        /* \"#utility.yul\":6462:6496   */\n      mstore\n        /* \"#utility.yul\":6393:6502   */\n      pop\n      pop\n      jump\t// out\n        /* \"#utility.yul\":6508:6828   */\n    tag_31:\n        /* \"#utility.yul\":6623:6627   */\n      0x00\n        /* \"#utility.yul\":6661:6663   */\n      0x40\n        /* \"#utility.yul\":6650:6659   */\n      dup3\n        /* \"#utility.yul\":6646:6664   */\n      add\n        /* \"#utility.yul\":6638:6664   */\n      swap1\n      pop\n        /* \"#utility.yul\":6674:6739   */\n      tag_199\n        /* \"#utility.yul\":6736:6737   */\n      0x00\n        /* \"#utility.yul\":6725:6734   */\n      dup4\n        /* \"#utility.yul\":6721:6738   */\n      add\n        /* \"#utility.yul\":6712:6718   */\n      dup6\n        /* \"#utility.yul\":6674:6739   */\n      tag_97\n      jump\t// in\n    tag_199:\n        /* \"#utility.yul\":6749:6821   */\n      tag_200\n        /* \"#utility.yul\":6817:6819   */\n      0x20\n        /* \"#utility.yul\":6806:6815   */\n      dup4\n        /* \"#utility.yul\":6802:6820   */\n      add\n        /* \"#utility.yul\":6793:6799   */\n      dup5\n        /* \"#utility.yul\":6749:6821   */\n      tag_77\n      jump\t// in\n    tag_200:\n        /* \"#utility.yul\":6508:6828   */\n      swap4\n      swap3\n      pop\n      pop\n      pop\n      jump\t// out\n        /* \"#utility.yul\":6834:7007   */\n    tag_98:\n        /* \"#utility.yul\":6974:6999   */\n      0x596f75206861766520616c726561647920766f7465642e000000000000000000\n        /* \"#utility.yul\":6970:6971   */\n      0x00\n        /* \"#utility.yul\":6962:6968   */\n      dup3\n        /* \"#utility.yul\":6958:6972   */\n      add\n        /* \"#utility.yul\":6951:7000   */\n      mstore\n        /* \"#utility.yul\":6834:7007   */\n      pop\n      jump\t// out\n        /* \"#utility.yul\":7013:7379   */\n    tag_99:\n        /* \"#utility.yul\":7155:7158   */\n      0x00\n        /* \"#utility.yul\":7176:7243   */\n      tag_203\n        /* \"#utility.yul\":7240:7242   */\n      0x17\n        /* \"#utility.yul\":7235:7238   */\n      dup4\n        /* \"#utility.yul\":7176:7243   */\n      tag_79\n      jump\t// in\n    tag_203:\n        /* \"#utility.yul\":7169:7243   */\n      swap2\n      pop\n        /* \"#utility.yul\":7252:7345   */\n      tag_204\n        /* \"#utility.yul\":7341:7344   */\n      dup3\n        /* \"#utility.yul\":7252:7345   */\n      tag_98\n      jump\t// in\n    tag_204:\n        /* \"#utility.yul\":7370:7372   */\n      0x20\n        /* \"#utility.yul\":7365:7368   */\n      dup3\n        /* \"#utility.yul\":7361:7373   */\n      add\n        /* \"#utility.yul\":7354:7373   */\n      swap1\n      pop\n        /* \"#utility.yul\":7013:7379   */\n      swap2\n      swap1\n      pop\n      jump\t// out\n        /* \"#utility.yul\":7385:7804   */\n    tag_39:\n        /* \"#utility.yul\":7551:7555   */\n      0x00\n        /* \"#utility.yul\":7589:7591   */\n      0x20\n        /* \"#utility.yul\":7578:7587   */\n      dup3\n        /* \"#utility.yul\":7574:7592   */\n      add\n        /* \"#utility.yul\":7566:7592   */\n      swap1\n      pop\n        /* \"#utility.yul\":7638:7647   */\n      dup2\n        /* \"#utility.yul\":7632:7636   */\n      dup2\n        /* \"#utility.yul\":7628:7648   */\n      sub\n        /* \"#utility.yul\":7624:7625   */\n      0x00\n        /* \"#utility.yul\":7613:7622   */\n      dup4\n        /* \"#utility.yul\":7609:7626   */\n      add\n        /* \"#utility.yul\":7602:7649   */\n      mstore\n        /* \"#utility.yul\":7666:7797   */\n      tag_206\n        /* \"#utility.yul\":7792:7796   */\n      dup2\n        /* \"#utility.yul\":7666:7797   */\n      tag_99\n      jump\t// in\n    tag_206:\n        /* \"#utility.yul\":7658:7797   */\n      swap1\n      pop\n        /* \"#utility.yul\":7385:7804   */\n      swap2\n      swap1\n      pop\n      jump\t// out\n        /* \"#utility.yul\":7810:7981   */\n    tag_100:\n        /* \"#utility.yul\":7950:7973   */\n      0x496e76616c69642063616e6469646174652049442e0000000000000000000000\n        /* \"#utility.yul\":7946:7947   */\n      0x00\n        /* \"#utility.yul\":7938:7944   */\n      dup3\n        /* \"#utility.yul\":7934:7948   */\n      add\n        /* \"#utility.yul\":7927:7974   */\n      mstore\n        /* \"#utility.yul\":7810:7981   */\n      pop\n      jump\t// out\n        /* \"#utility.yul\":7987:8353   */\n    tag_101:\n        /* \"#utility.yul\":8129:8132   */\n      0x00\n        /* \"#utility.yul\":8150:8217   */\n      tag_209\n        /* \"#utility.yul\":8214:8216   */\n      0x15\n        /* \"#utility.yul\":8209:8212   */\n      dup4\n        /* \"#utility.yul\":8150:8217   */\n      tag_79\n      jump\t// in\n    tag_209:\n        /* \"#utility.yul\":8143:8217   */\n      swap2\n      pop\n        /* \"#utility.yul\":8226:8319   */\n      tag_210\n        /* \"#utility.yul\":8315:8318   */\n      dup3\n        /* \"#utility.yul\":8226:8319   */\n      tag_100\n      jump\t// in\n    tag_210:\n        /* \"#utility.yul\":8344:8346   */\n      0x20\n        /* \"#utility.yul\":8339:8342   */\n      dup3\n        /* \"#utility.yul\":8335:8347   */\n      add\n        /* \"#utility.yul\":8328:8347   */\n      swap1\n      pop\n        /* \"#utility.yul\":7987:8353   */\n      swap2\n      swap1\n      pop\n      jump\t// out\n        /* \"#utility.yul\":8359:8778   */\n    tag_43:\n        /* \"#utility.yul\":8525:8529   */\n      0x00\n        /* \"#utility.yul\":8563:8565   */\n      0x20\n        /* \"#utility.yul\":8552:8561   */\n      dup3\n        /* \"#utility.yul\":8548:8566   */\n      add\n        /* \"#utility.yul\":8540:8566   */\n      swap1\n      pop\n        /* \"#utility.yul\":8612:8621   */\n      dup2\n        /* \"#utility.yul\":8606:8610   */\n      dup2\n        /* \"#utility.yul\":8602:8622   */\n      sub\n        /* \"#utility.yul\":8598:8599   */\n      0x00\n        /* \"#utility.yul\":8587:8596   */\n      dup4\n        /* \"#utility.yul\":8583:8600   */\n      add\n        /* \"#utility.yul\":8576:8623   */\n      mstore\n        /* \"#utility.yul\":8640:8771   */\n      tag_212\n        /* \"#utility.yul\":8766:8770   */\n      dup2\n        /* \"#utility.yul\":8640:8771   */\n      tag_101\n      jump\t// in\n    tag_212:\n        /* \"#utility.yul\":8632:8771   */\n      swap1\n      pop\n        /* \"#utility.yul\":8359:8778   */\n      swap2\n      swap1\n      pop\n      jump\t// out\n        /* \"#utility.yul\":8784:8964   */\n    tag_47:\n        /* \"#utility.yul\":8832:8909   */\n      0x4e487b7100000000000000000000000000000000000000000000000000000000\n        /* \"#utility.yul\":8829:8830   */\n      0x00\n        /* \"#utility.yul\":8822:8910   */\n      mstore\n        /* \"#utility.yul\":8929:8933   */\n      0x32\n        /* \"#utility.yul\":8926:8927   */\n      0x04\n        /* \"#utility.yul\":8919:8934   */\n      mstore\n        /* \"#utility.yul\":8953:8957   */\n      0x24\n        /* \"#utility.yul\":8950:8951   */\n      0x00\n        /* \"#utility.yul\":8943:8958   */\n      revert\n        /* \"#utility.yul\":8970:9150   */\n    tag_102:\n        /* \"#utility.yul\":9018:9095   */\n      0x4e487b7100000000000000000000000000000000000000000000000000000000\n        /* \"#utility.yul\":9015:9016   */\n      0x00\n        /* \"#utility.yul\":9008:9096   */\n      mstore\n        /* \"#utility.yul\":9115:9119   */\n      0x11\n        /* \"#utility.yul\":9112:9113   */\n      0x04\n        /* \"#utility.yul\":9105:9120   */\n      mstore\n        /* \"#utility.yul\":9139:9143   */\n      0x24\n        /* \"#utility.yul\":9136:9137   */\n      0x00\n        /* \"#utility.yul\":9129:9144   */\n      revert\n        /* \"#utility.yul\":9156:9389   */\n    tag_50:\n        /* \"#utility.yul\":9195:9198   */\n      0x00\n        /* \"#utility.yul\":9218:9242   */\n      tag_216\n        /* \"#utility.yul\":9236:9241   */\n      dup3\n        /* \"#utility.yul\":9218:9242   */\n      tag_74\n      jump\t// in\n    tag_216:\n        /* \"#utility.yul\":9209:9242   */\n      swap2\n      pop\n        /* \"#utility.yul\":9264:9330   */\n      0xffffffffffffffffffffffffffffffffffffffffffffffffffffffffffffffff\n        /* \"#utility.yul\":9257:9262   */\n      dup3\n        /* \"#utility.yul\":9254:9331   */\n      sub\n        /* \"#utility.yul\":9251:9354   */\n      tag_217\n      jumpi\n        /* \"#utility.yul\":9334:9352   */\n      tag_218\n      tag_102\n      jump\t// in\n    tag_218:\n        /* \"#utility.yul\":9251:9354   */\n    tag_217:\n        /* \"#utility.yul\":9381:9382   */\n      0x01\n        /* \"#utility.yul\":9374:9379   */\n      dup3\n        /* \"#utility.yul\":9370:9383   */\n      add\n        /* \"#utility.yul\":9363:9383   */\n      swap1\n      pop\n        /* \"#utility.yul\":9156:9389   */\n      swap2\n      swap1\n      pop\n      jump\t// out\n        /* \"#utility.yul\":9395:9575   */\n    tag_103:\n        /* \"#utility.yul\":9443:9520   */\n      0x4e487b7100000000000000000000000000000000000000000000000000000000\n        /* \"#utility.yul\":9440:9441   */\n      0x00\n        /* \"#utility.yul\":9433:9521   */\n      mstore\n        /* \"#utility.yul\":9540:9544   */\n      0x22\n        /* \"#utility.yul\":9537:9538   */\n      0x04\n        /* \"#utility.yul\":9530:9545   */\n      mstore\n        /* \"#utility.yul\":9564:9568   */\n      0x24\n        /* \"#utility.yul\":9561:9562   */\n      0x00\n        /* \"#utility.yul\":9554:9569   */\n      revert\n        /* \"#utility.yul\":9581:9901   */\n    tag_55:\n        /* \"#utility.yul\":9625:9631   */\n      0x00\n        /* \"#utility.yul\":9662:9663   */\n      0x02\n        /* \"#utility.yul\":9656:9660   */\n      dup3\n        /* \"#utility.yul\":9652:9664   */\n      div\n        /* \"#utility.yul\":9642:9664   */\n      swap1\n      pop\n        /* \"#utility.yul\":9709:9710   */\n      0x01\n        /* \"#utility.yul\":9703:9707   */\n      dup3\n        /* \"#utility.yul\":9699:9711   */\n      and\n        /* \"#utility.yul\":9730:9748   */\n      dup1\n        /* \"#utility.yul\":9720:9801   */\n      tag_221\n      jumpi\n        /* \"#utility.yul\":9786:9790   */\n      0x7f\n        /* \"#utility.yul\":9778:9784   */\n      dup3\n        /* \"#utility.yul\":9774:9791   */\n      and\n        /* \"#utility.yul\":9764:9791   */\n      swap2\n      pop\n        /* \"#utility.yul\":9720:9801   */\n    tag_221:\n        /* \"#utility.yul\":9848:9850   */\n      0x20\n        /* \"#utility.yul\":9840:9846   */\n      dup3\n        /* \"#utility.yul\":9837:9851   */\n      lt\n        /* \"#utility.yul\":9817:9835   */\n      dup2\n        /* \"#utility.yul\":9814:9852   */\n      sub\n        /* \"#utility.yul\":9811:9895   */\n      tag_222\n      jumpi\n        /* \"#utility.yul\":9867:9885   */\n      tag_223\n      tag_103\n      jump\t// in\n    tag_223:\n        /* \"#utility.yul\":9811:9895   */\n    tag_222:\n        /* \"#utility.yul\":9632:9901   */\n      pop\n        /* \"#utility.yul\":9581:9901   */\n      swap2\n      swap1\n      pop\n      jump\t// out\n        /* \"#utility.yul\":9907:10048   */\n    tag_104:\n        /* \"#utility.yul\":9956:9960   */\n      0x00\n        /* \"#utility.yul\":9979:9982   */\n      dup2\n        /* \"#utility.yul\":9971:9982   */\n      swap1\n      pop\n        /* \"#utility.yul\":10002:10005   */\n      dup2\n        /* \"#utility.yul\":9999:10000   */\n      0x00\n        /* \"#utility.yul\":9992:10006   */\n      mstore\n        /* \"#utility.yul\":10036:10040   */\n      0x20\n        /* \"#utility.yul\":10033:10034   */\n      0x00\n        /* \"#utility.yul\":10023:10041   */\n      keccak256\n        /* \"#utility.yul\":10015:10041   */\n      swap1\n      pop\n        /* \"#utility.yul\":9907:10048   */\n      swap2\n      swap1\n      pop\n      jump\t// out\n        /* \"#utility.yul\":10054:10147   */\n    tag_105:\n        /* \"#utility.yul\":10091:10097   */\n      0x00\n        /* \"#utility.yul\":10138:10140   */\n      0x20\n        /* \"#utility.yul\":10133:10135   */\n      0x1f\n        /* \"#utility.yul\":10126:10131   */\n      dup4\n        /* \"#utility.yul\":10122:10136   */\n      add\n        /* \"#utility.yul\":10118:10141   */\n      div\n        /* \"#utility.yul\":10108:10141   */\n      swap1\n      pop\n        /* \"#utility.yul\":10054:10147   */\n      swap2\n      swap1\n      pop\n      jump\t// out\n        /* \"#utility.yul\":10153:10260   */\n    tag_106:\n        /* \"#utility.yul\":10197:10205   */\n      0x00\n        /* \"#utility.yul\":10247:10252   */\n      dup3\n        /* \"#utility.yul\":10241:10245   */\n      dup3\n        /* \"#utility.yul\":10237:10253   */\n      shl\n        /* \"#utility.yul\":10216:10253   */\n      swap1\n      pop\n        /* \"#utility.yul\":10153:10260   */\n      swap3\n      swap2\n      pop\n      pop\n      jump\t// out\n        /* \"#utility.yul\":10266:10659   */\n    tag_107:\n        /* \"#utility.yul\":10335:10341   */\n      0x00\n        /* \"#utility.yul\":10385:10386   */\n      0x08\n        /* \"#utility.yul\":10373:10383   */\n      dup4\n        /* \"#utility.yul\":10369:10387   */\n      mul\n        /* \"#utility.yul\":10408:10505   */\n      tag_228\n        /* \"#utility.yul\":10438:10504   */\n      0xffffffffffffffffffffffffffffffffffffffffffffffffffffffffffffffff\n        /* \"#utility.yul\":10427:10436   */\n      dup3\n        /* \"#utility.yul\":10408:10505   */\n      tag_106\n      jump\t// in\n    tag_228:\n        /* \"#utility.yul\":10526:10565   */\n      tag_229\n        /* \"#utility.yul\":10556:10564   */\n      dup7\n        /* \"#utility.yul\":10545:10554   */\n      dup4\n        /* \"#utility.yul\":10526:10565   */\n      tag_106\n      jump\t// in\n    tag_229:\n        /* \"#utility.yul\":10514:10565   */\n      swap6\n      pop\n        /* \"#utility.yul\":10598:10602   */\n      dup1\n        /* \"#utility.yul\":10594:10603   */\n      not\n        /* \"#utility.yul\":10587:10592   */\n      dup5\n        /* \"#utility.yul\":10583:10604   */\n      and\n        /* \"#utility.yul\":10574:10604   */\n      swap4\n      pop\n        /* \"#utility.yul\":10647:10651   */\n      dup1\n        /* \"#utility.yul\":10637:10645   */\n      dup7\n        /* \"#utility.yul\":10633:10652   */\n      and\n        /* \"#utility.yul\":10626:10631   */\n      dup5\n        /* \"#utility.yul\":10623:10653   */\n      or\n        /* \"#utility.yul\":10613:10653   */\n      swap3\n      pop\n        /* \"#utility.yul\":10342:10659   */\n      pop\n      pop\n        /* \"#utility.yul\":10266:10659   */\n      swap4\n      swap3\n      pop\n      pop\n      pop\n      jump\t// out\n        /* \"#utility.yul\":10665:10725   */\n    tag_108:\n        /* \"#utility.yul\":10693:10696   */\n      0x00\n        /* \"#utility.yul\":10714:10719   */\n      dup2\n        /* \"#utility.yul\":10707:10719   */\n      swap1\n      pop\n        /* \"#utility.yul\":10665:10725   */\n      swap2\n      swap1\n      pop\n      jump\t// out\n        /* \"#utility.yul\":10731:10873   */\n    tag_109:\n        /* \"#utility.yul\":10781:10790   */\n      0x00\n        /* \"#utility.yul\":10814:10867   */\n      tag_232\n        /* \"#utility.yul\":10832:10866   */\n      tag_233\n        /* \"#utility.yul\":10841:10865   */\n      tag_234\n        /* \"#utility.yul\":10859:10864   */\n      dup5\n        /* \"#utility.yul\":10841:10865   */\n      tag_74\n      jump\t// in\n    tag_234:\n        /* \"#utility.yul\":10832:10866   */\n      tag_108\n      jump\t// in\n    tag_233:\n        /* \"#utility.yul\":10814:10867   */\n      tag_74\n      jump\t// in\n    tag_232:\n        /* \"#utility.yul\":10801:10867   */\n      swap1\n      pop\n        /* \"#utility.yul\":10731:10873   */\n      swap2\n      swap1\n      pop\n      jump\t// out\n        /* \"#utility.yul\":10879:10954   */\n    tag_110:\n        /* \"#utility.yul\":10922:10925   */\n      0x00\n        /* \"#utility.yul\":10943:10948   */\n      dup2\n        /* \"#utility.yul\":10936:10948   */\n      swap1\n      pop\n        /* \"#utility.yul\":10879:10954   */\n      swap2\n      swap1\n      pop\n      jump\t// out\n        /* \"#utility.yul\":10960:11229   */\n    tag_111:\n        /* \"#utility.yul\":11070:11109   */\n      tag_237\n        /* \"#utility.yul\":11101:11108   */\n      dup4\n        /* \"#utility.yul\":11070:11109   */\n      tag_109\n      jump\t// in\n    tag_237:\n        /* \"#utility.yul\":11131:11222   */\n      tag_238\n        /* \"#utility.yul\":11180:11221   */\n      tag_239\n        /* \"#utility.yul\":11204:11220   */\n      dup3\n        /* \"#utility.yul\":11180:11221   */\n      tag_110\n      jump\t// in\n    tag_239:\n        /* \"#utility.yul\":11172:11178   */\n      dup5\n        /* \"#utility.yul\":11165:11169   */\n      dup5\n        /* \"#utility.yul\":11159:11170   */\n      sload\n        /* \"#utility.yul\":11131:11222   */\n      tag_107\n      jump\t// in\n    tag_238:\n        /* \"#utility.yul\":11125:11129   */\n      dup3\n        /* \"#utility.yul\":11118:11223   */\n      sstore\n        /* \"#utility.yul\":11036:11229   */\n      pop\n        /* \"#utility.yul\":10960:11229   */\n      pop\n      pop\n      pop\n      jump\t// out\n        /* \"#utility.yul\":11235:11308   */\n    tag_112:\n        /* \"#utility.yul\":11280:11283   */\n      0x00\n        /* \"#utility.yul\":11235:11308   */\n      swap1\n      jump\t// out\n        /* \"#utility.yul\":11314:11503   */\n    tag_113:\n        /* \"#utility.yul\":11391:11423   */\n      tag_242\n      tag_112\n      jump\t// in\n    tag_242:\n        /* \"#utility.yul\":11432:11497   */\n      tag_243\n        /* \"#utility.yul\":11490:11496   */\n      dup2\n        /* \"#utility.yul\":11482:11488   */\n      dup5\n        /* \"#utility.yul\":11476:11480   */\n      dup5\n        /* \"#utility.yul\":11432:11497   */\n      tag_111\n      jump\t// in\n    tag_243:\n        /* \"#utility.yul\":11367:11503   */\n      pop\n        /* \"#utility.yul\":11314:11503   */\n      pop\n      pop\n      jump\t// out\n        /* \"#utility.yul\":11509:11695   */\n    tag_114:\n        /* \"#utility.yul\":11569:11689   */\n    tag_245:\n        /* \"#utility.yul\":11586:11589   */\n      dup2\n        /* \"#utility.yul\":11579:11584   */\n      dup2\n        /* \"#utility.yul\":11576:11590   */\n      lt\n        /* \"#utility.yul\":11569:11689   */\n      iszero\n      tag_247\n      jumpi\n        /* \"#utility.yul\":11640:11679   */\n      tag_248\n        /* \"#utility.yul\":11677:11678   */\n      0x00\n        /* \"#utility.yul\":11670:11675   */\n      dup3\n        /* \"#utility.yul\":11640:11679   */\n      tag_113\n      jump\t// in\n    tag_248:\n        /* \"#utility.yul\":11613:11614   */\n      0x01\n        /* \"#utility.yul\":11606:11611   */\n      dup2\n        /* \"#utility.yul\":11602:11615   */\n      add\n        /* \"#utility.yul\":11593:11615   */\n      swap1\n      pop\n        /* \"#utility.yul\":11569:11689   */\n      jump(tag_245)\n    tag_247:\n        /* \"#utility.yul\":11509:11695   */\n      pop\n      pop\n      jump\t// out\n        /* \"#utility.yul\":11701:12244   */\n    tag_115:\n        /* \"#utility.yul\":11802:11804   */\n      0x1f\n        /* \"#utility.yul\":11797:11800   */\n      dup3\n        /* \"#utility.yul\":11794:11805   */\n      gt\n        /* \"#utility.yul\":11791:12237   */\n      iszero\n      tag_250\n      jumpi\n        /* \"#utility.yul\":11836:11874   */\n      tag_251\n        /* \"#utility.yul\":11868:11873   */\n      dup2\n        /* \"#utility.yul\":11836:11874   */\n      tag_104\n      jump\t// in\n    tag_251:\n        /* \"#utility.yul\":11920:11949   */\n      tag_252\n        /* \"#utility.yul\":11938:11948   */\n      dup5\n        /* \"#utility.yul\":11920:11949   */\n      tag_105\n      jump\t// in\n    tag_252:\n        /* \"#utility.yul\":11910:11918   */\n      dup2\n        /* \"#utility.yul\":11906:11950   */\n      add\n        /* \"#utility.yul\":12103:12105   */\n      0x20\n        /* \"#utility.yul\":12091:12101   */\n      dup6\n        /* \"#utility.yul\":12088:12106   */\n      lt\n        /* \"#utility.yul\":12085:12134   */\n      iszero\n      tag_253\n      jumpi\n        /* \"#utility.yul\":12124:12132   */\n      dup2\n        /* \"#utility.yul\":12109:12132   */\n      swap1\n      pop\n        /* \"#utility.yul\":12085:12134   */\n    tag_253:\n        /* \"#utility.yul\":12147:12227   */\n      tag_254\n        /* \"#utility.yul\":12203:12225   */\n      tag_255\n        /* \"#utility.yul\":12221:12224   */\n      dup6\n        /* \"#utility.yul\":12203:12225   */\n      tag_105\n      jump\t// in\n    tag_255:\n        /* \"#utility.yul\":12193:12201   */\n      dup4\n        /* \"#utility.yul\":12189:12226   */\n      add\n        /* \"#utility.yul\":12176:12187   */\n      dup3\n        /* \"#utility.yul\":12147:12227   */\n      tag_114\n      jump\t// in\n    tag_254:\n        /* \"#utility.yul\":11806:12237   */\n      pop\n      pop\n        /* \"#utility.yul\":11791:12237   */\n    tag_250:\n        /* \"#utility.yul\":11701:12244   */\n      pop\n      pop\n      pop\n      jump\t// out\n        /* \"#utility.yul\":12250:12367   */\n    tag_116:\n        /* \"#utility.yul\":12304:12312   */\n      0x00\n        /* \"#utility.yul\":12354:12359   */\n      dup3\n        /* \"#utility.yul\":12348:12352   */\n      dup3\n        /* \"#utility.yul\":12344:12360   */\n      shr\n        /* \"#utility.yul\":12323:12360   */\n      swap1\n      pop\n        /* \"#utility.yul\":12250:12367   */\n      swap3\n      swap2\n      pop\n      pop\n      jump\t// out\n        /* \"#utility.yul\":12373:12542   */\n    tag_117:\n        /* \"#utility.yul\":12417:12423   */\n      0x00\n        /* \"#utility.yul\":12450:12501   */\n      tag_258\n        /* \"#utility.yul\":12498:12499   */\n      0x00\n        /* \"#utility.yul\":12494:12500   */\n      not\n        /* \"#utility.yul\":12486:12491   */\n      dup5\n        /* \"#utility.yul\":12483:12484   */\n      0x08\n        /* \"#utility.yul\":12479:12492   */\n      mul\n        /* \"#utility.yul\":12450:12501   */\n      tag_116\n      jump\t// in\n    tag_258:\n        /* \"#utility.yul\":12446:12502   */\n      not\n        /* \"#utility.yul\":12531:12535   */\n      dup1\n        /* \"#utility.yul\":12525:12529   */\n      dup4\n        /* \"#utility.yul\":12521:12536   */\n      and\n        /* \"#utility.yul\":12511:12536   */\n      swap2\n      pop\n        /* \"#utility.yul\":12424:12542   */\n      pop\n        /* \"#utility.yul\":12373:12542   */\n      swap3\n      swap2\n      pop\n      pop\n      jump\t// out\n        /* \"#utility.yul\":12547:12842   */\n    tag_118:\n        /* \"#utility.yul\":12623:12627   */\n      0x00\n        /* \"#utility.yul\":12769:12798   */\n      tag_260\n        /* \"#utility.yul\":12794:12797   */\n      dup4\n        /* \"#utility.yul\":12788:12792   */\n      dup4\n        /* \"#utility.yul\":12769:12798   */\n      tag_117\n      jump\t// in\n    tag_260:\n        /* \"#utility.yul\":12761:12798   */\n      swap2\n      pop\n        /* \"#utility.yul\":12831:12834   */\n      dup3\n        /* \"#utility.yul\":12828:12829   */\n      0x02\n        /* \"#utility.yul\":12824:12835   */\n      mul\n        /* \"#utility.yul\":12818:12822   */\n      dup3\n        /* \"#utility.yul\":12815:12836   */\n      or\n        /* \"#utility.yul\":12807:12836   */\n      swap1\n      pop\n        /* \"#utility.yul\":12547:12842   */\n      swap3\n      swap2\n      pop\n      pop\n      jump\t// out\n        /* \"#utility.yul\":12847:14242   */\n    tag_63:\n        /* \"#utility.yul\":12964:13001   */\n      tag_262\n        /* \"#utility.yul\":12997:13000   */\n      dup3\n        /* \"#utility.yul\":12964:13001   */\n      tag_78\n      jump\t// in\n    tag_262:\n        /* \"#utility.yul\":13066:13084   */\n      0xffffffffffffffff\n        /* \"#utility.yul\":13058:13064   */\n      dup2\n        /* \"#utility.yul\":13055:13085   */\n      gt\n        /* \"#utility.yul\":13052:13108   */\n      iszero\n      tag_263\n      jumpi\n        /* \"#utility.yul\":13088:13106   */\n      tag_264\n      tag_85\n      jump\t// in\n    tag_264:\n        /* \"#utility.yul\":13052:13108   */\n    tag_263:\n        /* \"#utility.yul\":13132:13170   */\n      tag_265\n        /* \"#utility.yul\":13164:13168   */\n      dup3\n        /* \"#utility.yul\":13158:13169   */\n      sload\n        /* \"#utility.yul\":13132:13170   */\n      tag_55\n      jump\t// in\n    tag_265:\n        /* \"#utility.yul\":13217:13284   */\n      tag_266\n        /* \"#utility.yul\":13277:13283   */\n      dup3\n        /* \"#utility.yul\":13269:13275   */\n      dup3\n        /* \"#utility.yul\":13263:13267   */\n      dup6\n        /* \"#utility.yul\":13217:13284   */\n      tag_115\n      jump\t// in\n    tag_266:\n        /* \"#utility.yul\":13311:13312   */\n      0x00\n        /* \"#utility.yul\":13335:13339   */\n      0x20\n        /* \"#utility.yul\":13322:13339   */\n      swap1\n      pop\n        /* \"#utility.yul\":13367:13369   */\n      0x1f\n        /* \"#utility.yul\":13359:13365   */\n      dup4\n        /* \"#utility.yul\":13356:13370   */\n      gt\n        /* \"#utility.yul\":13384:13385   */\n      0x01\n        /* \"#utility.yul\":13379:13997   */\n      dup2\n      eq\n      tag_268\n      jumpi\n        /* \"#utility.yul\":14041:14042   */\n      0x00\n        /* \"#utility.yul\":14058:14064   */\n      dup5\n        /* \"#utility.yul\":14055:14132   */\n      iszero\n      tag_269\n      jumpi\n        /* \"#utility.yul\":14107:14116   */\n      dup3\n        /* \"#utility.yul\":14102:14105   */\n      dup8\n        /* \"#utility.yul\":14098:14117   */\n      add\n        /* \"#utility.yul\":14092:14118   */\n      mload\n        /* \"#utility.yul\":14083:14118   */\n      swap1\n      pop\n        /* \"#utility.yul\":14055:14132   */\n    tag_269:\n        /* \"#utility.yul\":14158:14225   */\n      tag_270\n        /* \"#utility.yul\":14218:14224   */\n      dup6\n        /* \"#utility.yul\":14211:14216   */\n      dup3\n        /* \"#utility.yul\":14158:14225   */\n      tag_118\n      jump\t// in\n    tag_270:\n        /* \"#utility.yul\":14152:14156   */\n      dup7\n        /* \"#utility.yul\":14145:14226   */\n      sstore\n        /* \"#utility.yul\":14014:14236   */\n      pop\n        /* \"#utility.yul\":13349:14236   */\n      jump(tag_267)\n        /* \"#utility.yul\":13379:13997   */\n    tag_268:\n        /* \"#utility.yul\":13431:13435   */\n      0x1f\n        /* \"#utility.yul\":13427:13436   */\n      not\n        /* \"#utility.yul\":13419:13425   */\n      dup5\n        /* \"#utility.yul\":13415:13437   */\n      and\n        /* \"#utility.yul\":13465:13502   */\n      tag_271\n        /* \"#utility.yul\":13497:13501   */\n      dup7\n        /* \"#utility.yul\":13465:13502   */\n      tag_104\n      jump\t// in\n    tag_271:\n        /* \"#utility.yul\":13524:13525   */\n      0x00\n        /* \"#utility.yul\":13538:13746   */\n    tag_272:\n        /* \"#utility.yul\":13552:13559   */\n      dup3\n        /* \"#utility.yul\":13549:13550   */\n      dup2\n        /* \"#utility.yul\":13546:13560   */\n      lt\n        /* \"#utility.yul\":13538:13746   */\n      iszero\n      tag_274\n      jumpi\n        /* \"#utility.yul\":13631:13640   */\n      dup5\n        /* \"#utility.yul\":13626:13629   */\n      dup10\n        /* \"#utility.yul\":13622:13641   */\n      add\n        /* \"#utility.yul\":13616:13642   */\n      mload\n        /* \"#utility.yul\":13608:13614   */\n      dup3\n        /* \"#utility.yul\":13601:13643   */\n      sstore\n        /* \"#utility.yul\":13682:13683   */\n      0x01\n        /* \"#utility.yul\":13674:13680   */\n      dup3\n        /* \"#utility.yul\":13670:13684   */\n      add\n        /* \"#utility.yul\":13660:13684   */\n      swap2\n      pop\n        /* \"#utility.yul\":13729:13731   */\n      0x20\n        /* \"#utility.yul\":13718:13727   */\n      dup6\n        /* \"#utility.yul\":13714:13732   */\n      add\n        /* \"#utility.yul\":13701:13732   */\n      swap5\n      pop\n        /* \"#utility.yul\":13575:13579   */\n      0x20\n        /* \"#utility.yul\":13572:13573   */\n      dup2\n        /* \"#utility.yul\":13568:13580   */\n      add\n        /* \"#utility.yul\":13563:13580   */\n      swap1\n      pop\n        /* \"#utility.yul\":13538:13746   */\n      jump(tag_272)\n    tag_274:\n        /* \"#utility.yul\":13774:13780   */\n      dup7\n        /* \"#utility.yul\":13765:13772   */\n      dup4\n        /* \"#utility.yul\":13762:13781   */\n      lt\n        /* \"#utility.yul\":13759:13938   */\n      iszero\n      tag_275\n      jumpi\n        /* \"#utility.yul\":13832:13841   */\n      dup5\n        /* \"#utility.yul\":13827:13830   */\n      dup10\n        /* \"#utility.yul\":13823:13842   */\n      add\n        /* \"#utility.yul\":13817:13843   */\n      mload\n        /* \"#utility.yul\":13875:13923   */\n      tag_276\n        /* \"#utility.yul\":13917:13921   */\n      0x1f\n        /* \"#utility.yul\":13909:13915   */\n      dup10\n        /* \"#utility.yul\":13905:13922   */\n      and\n        /* \"#utility.yul\":13894:13903   */\n      dup3\n        /* \"#utility.yul\":13875:13923   */\n      tag_117\n      jump\t// in\n    tag_276:\n        /* \"#utility.yul\":13867:13873   */\n      dup4\n        /* \"#utility.yul\":13860:13924   */\n      sstore\n        /* \"#utility.yul\":13782:13938   */\n      pop\n        /* \"#utility.yul\":13759:13938   */\n    tag_275:\n        /* \"#utility.yul\":13984:13985   */\n      0x01\n        /* \"#utility.yul\":13980:13981   */\n      0x02\n        /* \"#utility.yul\":13972:13978   */\n      dup9\n        /* \"#utility.yul\":13968:13982   */\n      mul\n        /* \"#utility.yul\":13964:13986   */\n      add\n        /* \"#utility.yul\":13958:13962   */\n      dup9\n        /* \"#utility.yul\":13951:13987   */\n      sstore\n        /* \"#utility.yul\":13386:13997   */\n      pop\n      pop\n      pop\n        /* \"#utility.yul\":13349:14236   */\n    tag_267:\n      pop\n        /* \"#utility.yul\":12939:14242   */\n      pop\n      pop\n      pop\n        /* \"#utility.yul\":12847:14242   */\n      pop\n      pop\n      jump\t// out\n\n    auxdata: 0xa2646970667358221220285766348c122d901858e4d99feb7b206c65a4193028c375ecda3d0f35d1b3e464736f6c63430008120033\n}\n",
				"bytecode": {
					"linkReferences": {},
					"object": "608060405234801561001057600080fd5b50610d1e806100206000396000f3fe608060405234801561001057600080fd5b50600436106100625760003560e01c80630121b93f1461006757806330a56347146100835780633477ee2e146100a1578063462e91ec146100d2578063a3ec138d146100ee578063b2c2f2e81461011f575b600080fd5b610081600480360381019061007c9190610528565b61014f565b005b61008b610307565b6040516100989190610564565b60405180910390f35b6100bb60048036038101906100b69190610528565b610313565b6040516100c992919061060f565b60405180910390f35b6100ec60048036038101906100e79190610774565b6103cf565b005b6101086004803603810190610103919061081b565b610435565b604051610116929190610863565b60405180910390f35b61013960048036038101906101349190610528565b610466565b6040516101469190610564565b60405180910390f35b600160003373ffffffffffffffffffffffffffffffffffffffff1673ffffffffffffffffffffffffffffffffffffffff16815260200190815260200160002060000160009054906101000a900460ff16156101df576040517f08c379a00000000000000000000000000000000000000000000000000000000081526004016101d6906108d8565b60405180910390fd5b806000805490508110610227576040517f08c379a000000000000000000000000000000000000000000000000000000000815260040161021e90610944565b60405180910390fd5b60018060003373ffffffffffffffffffffffffffffffffffffffff1673ffffffffffffffffffffffffffffffffffffffff16815260200190815260200160002060000160006101000a81548160ff02191690831515021790555081600160003373ffffffffffffffffffffffffffffffffffffffff1673ffffffffffffffffffffffffffffffffffffffff16815260200190815260200160002060010181905550600082815481106102dc576102db610964565b5b906000526020600020906002020160010160008154809291906102fe906109c2565b91905055505050565b60008080549050905090565b6000818154811061032357600080fd5b906000526020600020906002020160009150905080600001805461034690610a39565b80601f016020809104026020016040519081016040528092919081815260200182805461037290610a39565b80156103bf5780601f10610394576101008083540402835291602001916103bf565b820191906000526020600020905b8154815290600101906020018083116103a257829003601f168201915b5050505050908060010154905082565b600060405180604001604052808381526020016000815250908060018154018082558091505060019003906000526020600020906002020160009091909190915060008201518160000190816104259190610c16565b5060208201518160010155505050565b60016020528060005260406000206000915090508060000160009054906101000a900460ff16908060010154905082565b60008160008054905081106104b0576040517f08c379a00000000000000000000000000000000000000000000000000000000081526004016104a790610944565b60405180910390fd5b600083815481106104c4576104c3610964565b5b906000526020600020906002020160010154915050919050565b6000604051905090565b600080fd5b600080fd5b6000819050919050565b610505816104f2565b811461051057600080fd5b50565b600081359050610522816104fc565b92915050565b60006020828403121561053e5761053d6104e8565b5b600061054c84828501610513565b91505092915050565b61055e816104f2565b82525050565b60006020820190506105796000830184610555565b92915050565b600081519050919050565b600082825260208201905092915050565b60005b838110156105b957808201518184015260208101905061059e565b60008484015250505050565b6000601f19601f8301169050919050565b60006105e18261057f565b6105eb818561058a565b93506105fb81856020860161059b565b610604816105c5565b840191505092915050565b6000604082019050818103600083015261062981856105d6565b90506106386020830184610555565b9392505050565b600080fd5b600080fd5b7f4e487b7100000000000000000000000000000000000000000000000000000000600052604160045260246000fd5b610681826105c5565b810181811067ffffffffffffffff821117156106a05761069f610649565b5b80604052505050565b60006106b36104de565b90506106bf8282610678565b919050565b600067ffffffffffffffff8211156106df576106de610649565b5b6106e8826105c5565b9050602081019050919050565b82818337600083830152505050565b6000610717610712846106c4565b6106a9565b90508281526020810184848401111561073357610732610644565b5b61073e8482856106f5565b509392505050565b600082601f83011261075b5761075a61063f565b5b813561076b848260208601610704565b91505092915050565b60006020828403121561078a576107896104e8565b5b600082013567ffffffffffffffff8111156107a8576107a76104ed565b5b6107b484828501610746565b91505092915050565b600073ffffffffffffffffffffffffffffffffffffffff82169050919050565b60006107e8826107bd565b9050919050565b6107f8816107dd565b811461080357600080fd5b50565b600081359050610815816107ef565b92915050565b600060208284031215610831576108306104e8565b5b600061083f84828501610806565b91505092915050565b60008115159050919050565b61085d81610848565b82525050565b60006040820190506108786000830185610854565b6108856020830184610555565b9392505050565b7f596f75206861766520616c726561647920766f7465642e000000000000000000600082015250565b60006108c260178361058a565b91506108cd8261088c565b602082019050919050565b600060208201905081810360008301526108f1816108b5565b9050919050565b7f496e76616c69642063616e6469646174652049442e0000000000000000000000600082015250565b600061092e60158361058a565b9150610939826108f8565b602082019050919050565b6000602082019050818103600083015261095d81610921565b9050919050565b7f4e487b7100000000000000000000000000000000000000000000000000000000600052603260045260246000fd5b7f4e487b7100000000000000000000000000000000000000000000000000000000600052601160045260246000fd5b60006109cd826104f2565b91507fffffffffffffffffffffffffffffffffffffffffffffffffffffffffffffffff82036109ff576109fe610993565b5b600182019050919050565b7f4e487b7100000000000000000000000000000000000000000000000000000000600052602260045260246000fd5b60006002820490506001821680610a5157607f821691505b602082108103610a6457610a63610a0a565b5b50919050565b60008190508160005260206000209050919050565b60006020601f8301049050919050565b600082821b905092915050565b600060088302610acc7fffffffffffffffffffffffffffffffffffffffffffffffffffffffffffffffff82610a8f565b610ad68683610a8f565b95508019841693508086168417925050509392505050565b6000819050919050565b6000610b13610b0e610b09846104f2565b610aee565b6104f2565b9050919050565b6000819050919050565b610b2d83610af8565b610b41610b3982610b1a565b848454610a9c565b825550505050565b600090565b610b56610b49565b610b61818484610b24565b505050565b5b81811015610b8557610b7a600082610b4e565b600181019050610b67565b5050565b601f821115610bca57610b9b81610a6a565b610ba484610a7f565b81016020851015610bb3578190505b610bc7610bbf85610a7f565b830182610b66565b50505b505050565b600082821c905092915050565b6000610bed60001984600802610bcf565b1980831691505092915050565b6000610c068383610bdc565b9150826002028217905092915050565b610c1f8261057f565b67ffffffffffffffff811115610c3857610c37610649565b5b610c428254610a39565b610c4d828285610b89565b600060209050601f831160018114610c805760008415610c6e578287015190505b610c788582610bfa565b865550610ce0565b601f198416610c8e86610a6a565b60005b82811015610cb657848901518255600182019150602085019450602081019050610c91565b86831015610cd35784890151610ccf601f891682610bdc565b8355505b6001600288020188555050505b50505050505056fea2646970667358221220285766348c122d901858e4d99feb7b206c65a4193028c375ecda3d0f35d1b3e464736f6c63430008120033",
					"opcodes": "PUSH1 0x80 PUSH1 0x40 MSTORE CALLVALUE DUP1 ISZERO PUSH2 0x10 JUMPI PUSH1 0x0 DUP1 REVERT JUMPDEST POP PUSH2 0xD1E DUP1 PUSH2 0x20 PUSH1 0x0 CODECOPY PUSH1 0x0 RETURN INVALID PUSH1 0x80 PUSH1 0x40 MSTORE CALLVALUE DUP1 ISZERO PUSH2 0x10 JUMPI PUSH1 0x0 DUP1 REVERT JUMPDEST POP PUSH1 0x4 CALLDATASIZE LT PUSH2 0x62 JUMPI PUSH1 0x0 CALLDATALOAD PUSH1 0xE0 SHR DUP1 PUSH4 0x121B93F EQ PUSH2 0x67 JUMPI DUP1 PUSH4 0x30A56347 EQ PUSH2 0x83 JUMPI DUP1 PUSH4 0x3477EE2E EQ PUSH2 0xA1 JUMPI DUP1 PUSH4 0x462E91EC EQ PUSH2 0xD2 JUMPI DUP1 PUSH4 0xA3EC138D EQ PUSH2 0xEE JUMPI DUP1 PUSH4 0xB2C2F2E8 EQ PUSH2 0x11F JUMPI JUMPDEST PUSH1 0x0 DUP1 REVERT JUMPDEST PUSH2 0x81 PUSH1 0x4 DUP1 CALLDATASIZE SUB DUP2 ADD SWAP1 PUSH2 0x7C SWAP2 SWAP1 PUSH2 0x528 JUMP JUMPDEST PUSH2 0x14F JUMP JUMPDEST STOP JUMPDEST PUSH2 0x8B PUSH2 0x307 JUMP JUMPDEST PUSH1 0x40 MLOAD PUSH2 0x98 SWAP2 SWAP1 PUSH2 0x564 JUMP JUMPDEST PUSH1 0x40 MLOAD DUP1 SWAP2 SUB SWAP1 RETURN JUMPDEST PUSH2 0xBB PUSH1 0x4 DUP1 CALLDATASIZE SUB DUP2 ADD SWAP1 PUSH2 0xB6 SWAP2 SWAP1 PUSH2 0x528 JUMP JUMPDEST PUSH2 0x313 JUMP JUMPDEST PUSH1 0x40 MLOAD PUSH2 0xC9 SWAP3 SWAP2 SWAP1 PUSH2 0x60F JUMP JUMPDEST PUSH1 0x40 MLOAD DUP1 SWAP2 SUB SWAP1 RETURN JUMPDEST PUSH2 0xEC PUSH1 0x4 DUP1 CALLDATASIZE SUB DUP2 ADD SWAP1 PUSH2 0xE7 SWAP2 SWAP1 PUSH2 0x774 JUMP JUMPDEST PUSH2 0x3CF JUMP JUMPDEST STOP JUMPDEST PUSH2 0x108 PUSH1 0x4 DUP1 CALLDATASIZE SUB DUP2 ADD SWAP1 PUSH2 0x103 SWAP2 SWAP1 PUSH2 0x81B JUMP JUMPDEST PUSH2 0x435 JUMP JUMPDEST PUSH1 0x40 MLOAD PUSH2 0x116 SWAP3 SWAP2 SWAP1 PUSH2 0x863 JUMP JUMPDEST PUSH1 0x40 MLOAD DUP1 SWAP2 SUB SWAP1 RETURN JUMPDEST PUSH2 0x139 PUSH1 0x4 DUP1 CALLDATASIZE SUB DUP2 ADD SWAP1 PUSH2 0x134 SWAP2 SWAP1 PUSH2 0x528 JUMP JUMPDEST PUSH2 0x466 JUMP JUMPDEST PUSH1 0x40 MLOAD PUSH2 0x146 SWAP2 SWAP1 PUSH2 0x564 JUMP JUMPDEST PUSH1 0x40 MLOAD DUP1 SWAP2 SUB SWAP1 RETURN JUMPDEST PUSH1 0x1 PUSH1 0x0 CALLER PUSH20 0xFFFFFFFFFFFFFFFFFFFFFFFFFFFFFFFFFFFFFFFF AND PUSH20 0xFFFFFFFFFFFFFFFFFFFFFFFFFFFFFFFFFFFFFFFF AND DUP2 MSTORE PUSH1 0x20 ADD SWAP1 DUP2 MSTORE PUSH1 0x20 ADD PUSH1 0x0 KECCAK256 PUSH1 0x0 ADD PUSH1 0x0 SWAP1 SLOAD SWAP1 PUSH2 0x100 EXP SWAP1 DIV PUSH1 0xFF AND ISZERO PUSH2 0x1DF JUMPI PUSH1 0x40 MLOAD PUSH32 0x8C379A000000000000000000000000000000000000000000000000000000000 DUP2 MSTORE PUSH1 0x4 ADD PUSH2 0x1D6 SWAP1 PUSH2 0x8D8 JUMP JUMPDEST PUSH1 0x40 MLOAD DUP1 SWAP2 SUB SWAP1 REVERT JUMPDEST DUP1 PUSH1 0x0 DUP1 SLOAD SWAP1 POP DUP2 LT PUSH2 0x227 JUMPI PUSH1 0x40 MLOAD PUSH32 0x8C379A000000000000000000000000000000000000000000000000000000000 DUP2 MSTORE PUSH1 0x4 ADD PUSH2 0x21E SWAP1 PUSH2 0x944 JUMP JUMPDEST PUSH1 0x40 MLOAD DUP1 SWAP2 SUB SWAP1 REVERT JUMPDEST PUSH1 0x1 DUP1 PUSH1 0x0 CALLER PUSH20 0xFFFFFFFFFFFFFFFFFFFFFFFFFFFFFFFFFFFFFFFF AND PUSH20 0xFFFFFFFFFFFFFFFFFFFFFFFFFFFFFFFFFFFFFFFF AND DUP2 MSTORE PUSH1 0x20 ADD SWAP1 DUP2 MSTORE PUSH1 0x20 ADD PUSH1 0x0 KECCAK256 PUSH1 0x0 ADD PUSH1 0x0 PUSH2 0x100 EXP DUP2 SLOAD DUP2 PUSH1 0xFF MUL NOT AND SWAP1 DUP4 ISZERO ISZERO MUL OR SWAP1 SSTORE POP DUP2 PUSH1 0x1 PUSH1 0x0 CALLER PUSH20 0xFFFFFFFFFFFFFFFFFFFFFFFFFFFFFFFFFFFFFFFF AND PUSH20 0xFFFFFFFFFFFFFFFFFFFFFFFFFFFFFFFFFFFFFFFF AND DUP2 MSTORE PUSH1 0x20 ADD SWAP1 DUP2 MSTORE PUSH1 0x20 ADD PUSH1 0x0 KECCAK256 PUSH1 0x1 ADD DUP2 SWAP1 SSTORE POP PUSH1 0x0 DUP3 DUP2 SLOAD DUP2 LT PUSH2 0x2DC JUMPI PUSH2 0x2DB PUSH2 0x964 JUMP JUMPDEST JUMPDEST SWAP1 PUSH1 0x0 MSTORE PUSH1 0x20 PUSH1 0x0 KECCAK256 SWAP1 PUSH1 0x2 MUL ADD PUSH1 0x1 ADD PUSH1 0x0 DUP2 SLOAD DUP1 SWAP3 SWAP2 SWAP1 PUSH2 0x2FE SWAP1 PUSH2 0x9C2 JUMP JUMPDEST SWAP2 SWAP1 POP SSTORE POP POP POP JUMP JUMPDEST PUSH1 0x0 DUP1 DUP1 SLOAD SWAP1 POP SWAP1 POP SWAP1 JUMP JUMPDEST PUSH1 0x0 DUP2 DUP2 SLOAD DUP2 LT PUSH2 0x323 JUMPI PUSH1 0x0 DUP1 REVERT JUMPDEST SWAP1 PUSH1 0x0 MSTORE PUSH1 0x20 PUSH1 0x0 KECCAK256 SWAP1 PUSH1 0x2 MUL ADD PUSH1 0x0 SWAP2 POP SWAP1 POP DUP1 PUSH1 0x0 ADD DUP1 SLOAD PUSH2 0x346 SWAP1 PUSH2 0xA39 JUMP JUMPDEST DUP1 PUSH1 0x1F ADD PUSH1 0x20 DUP1 SWAP2 DIV MUL PUSH1 0x20 ADD PUSH1 0x40 MLOAD SWAP1 DUP2 ADD PUSH1 0x40 MSTORE DUP1 SWAP3 SWAP2 SWAP1 DUP2 DUP2 MSTORE PUSH1 0x20 ADD DUP3 DUP1 SLOAD PUSH2 0x372 SWAP1 PUSH2 0xA39 JUMP JUMPDEST DUP1 ISZERO PUSH2 0x3BF JUMPI DUP1 PUSH1 0x1F LT PUSH2 0x394 JUMPI PUSH2 0x100 DUP1 DUP4 SLOAD DIV MUL DUP4 MSTORE SWAP2 PUSH1 0x20 ADD SWAP2 PUSH2 0x3BF JUMP JUMPDEST DUP3 ADD SWAP2 SWAP1 PUSH1 0x0 MSTORE PUSH1 0x20 PUSH1 0x0 KECCAK256 SWAP1 JUMPDEST DUP2 SLOAD DUP2 MSTORE SWAP1 PUSH1 0x1 ADD SWAP1 PUSH1 0x20 ADD DUP1 DUP4 GT PUSH2 0x3A2 JUMPI DUP3 SWAP1 SUB PUSH1 0x1F AND DUP3 ADD SWAP2 JUMPDEST POP POP POP POP POP SWAP1 DUP1 PUSH1 0x1 ADD SLOAD SWAP1 POP DUP3 JUMP JUMPDEST PUSH1 0x0 PUSH1 0x40 MLOAD DUP1 PUSH1 0x40 ADD PUSH1 0x40 MSTORE DUP1 DUP4 DUP2 MSTORE PUSH1 0x20 ADD PUSH1 0x0 DUP2 MSTORE POP SWAP1 DUP1 PUSH1 0x1 DUP2 SLOAD ADD DUP1 DUP3 SSTORE DUP1 SWAP2 POP POP PUSH1 0x1 SWAP1 SUB SWAP1 PUSH1 0x0 MSTORE PUSH1 0x20 PUSH1 0x0 KECCAK256 SWAP1 PUSH1 0x2 MUL ADD PUSH1 0x0 SWAP1 SWAP2 SWAP1 SWAP2 SWAP1 SWAP2 POP PUSH1 0x0 DUP3 ADD MLOAD DUP2 PUSH1 0x0 ADD SWAP1 DUP2 PUSH2 0x425 SWAP2 SWAP1 PUSH2 0xC16 JUMP JUMPDEST POP PUSH1 0x20 DUP3 ADD MLOAD DUP2 PUSH1 0x1 ADD SSTORE POP POP POP JUMP JUMPDEST PUSH1 0x1 PUSH1 0x20 MSTORE DUP1 PUSH1 0x0 MSTORE PUSH1 0x40 PUSH1 0x0 KECCAK256 PUSH1 0x0 SWAP2 POP SWAP1 POP DUP1 PUSH1 0x0 ADD PUSH1 0x0 SWAP1 SLOAD SWAP1 PUSH2 0x100 EXP SWAP1 DIV PUSH1 0xFF AND SWAP1 DUP1 PUSH1 0x1 ADD SLOAD SWAP1 POP DUP3 JUMP JUMPDEST PUSH1 0x0 DUP2 PUSH1 0x0 DUP1 SLOAD SWAP1 POP DUP2 LT PUSH2 0x4B0 JUMPI PUSH1 0x40 MLOAD PUSH32 0x8C379A000000000000000000000000000000000000000000000000000000000 DUP2 MSTORE PUSH1 0x4 ADD PUSH2 0x4A7 SWAP1 PUSH2 0x944 JUMP JUMPDEST PUSH1 0x40 MLOAD DUP1 SWAP2 SUB SWAP1 REVERT JUMPDEST PUSH1 0x0 DUP4 DUP2 SLOAD DUP2 LT PUSH2 0x4C4 JUMPI PUSH2 0x4C3 PUSH2 0x964 JUMP JUMPDEST JUMPDEST SWAP1 PUSH1 0x0 MSTORE PUSH1 0x20 PUSH1 0x0 KECCAK256 SWAP1 PUSH1 0x2 MUL ADD PUSH1 0x1 ADD SLOAD SWAP2 POP POP SWAP2 SWAP1 POP JUMP JUMPDEST PUSH1 0x0 PUSH1 0x40 MLOAD SWAP1 POP SWAP1 JUMP JUMPDEST PUSH1 0x0 DUP1 REVERT JUMPDEST PUSH1 0x0 DUP1 REVERT JUMPDEST PUSH1 0x0 DUP2 SWAP1 POP SWAP2 SWAP1 POP JUMP JUMPDEST PUSH2 0x505 DUP2 PUSH2 0x4F2 JUMP JUMPDEST DUP2 EQ PUSH2 0x510 JUMPI PUSH1 0x0 DUP1 REVERT JUMPDEST POP JUMP JUMPDEST PUSH1 0x0 DUP2 CALLDATALOAD SWAP1 POP PUSH2 0x522 DUP2 PUSH2 0x4FC JUMP JUMPDEST SWAP3 SWAP2 POP POP JUMP JUMPDEST PUSH1 0x0 PUSH1 0x20 DUP3 DUP5 SUB SLT ISZERO PUSH2 0x53E JUMPI PUSH2 0x53D PUSH2 0x4E8 JUMP JUMPDEST JUMPDEST PUSH1 0x0 PUSH2 0x54C DUP5 DUP3 DUP6 ADD PUSH2 0x513 JUMP JUMPDEST SWAP2 POP POP SWAP3 SWAP2 POP POP JUMP JUMPDEST PUSH2 0x55E DUP2 PUSH2 0x4F2 JUMP JUMPDEST DUP3 MSTORE POP POP JUMP JUMPDEST PUSH1 0x0 PUSH1 0x20 DUP3 ADD SWAP1 POP PUSH2 0x579 PUSH1 0x0 DUP4 ADD DUP5 PUSH2 0x555 JUMP JUMPDEST SWAP3 SWAP2 POP POP JUMP JUMPDEST PUSH1 0x0 DUP2 MLOAD SWAP1 POP SWAP2 SWAP1 POP JUMP JUMPDEST PUSH1 0x0 DUP3 DUP3 MSTORE PUSH1 0x20 DUP3 ADD SWAP1 POP SWAP3 SWAP2 POP POP JUMP JUMPDEST PUSH1 0x0 JUMPDEST DUP4 DUP2 LT ISZERO PUSH2 0x5B9 JUMPI DUP1 DUP3 ADD MLOAD DUP2 DUP5 ADD MSTORE PUSH1 0x20 DUP2 ADD SWAP1 POP PUSH2 0x59E JUMP JUMPDEST PUSH1 0x0 DUP5 DUP5 ADD MSTORE POP POP POP POP JUMP JUMPDEST PUSH1 0x0 PUSH1 0x1F NOT PUSH1 0x1F DUP4 ADD AND SWAP1 POP SWAP2 SWAP1 POP JUMP JUMPDEST PUSH1 0x0 PUSH2 0x5E1 DUP3 PUSH2 0x57F JUMP JUMPDEST PUSH2 0x5EB DUP2 DUP6 PUSH2 0x58A JUMP JUMPDEST SWAP4 POP PUSH2 0x5FB DUP2 DUP6 PUSH1 0x20 DUP7 ADD PUSH2 0x59B JUMP JUMPDEST PUSH2 0x604 DUP2 PUSH2 0x5C5 JUMP JUMPDEST DUP5 ADD SWAP2 POP POP SWAP3 SWAP2 POP POP JUMP JUMPDEST PUSH1 0x0 PUSH1 0x40 DUP3 ADD SWAP1 POP DUP2 DUP2 SUB PUSH1 0x0 DUP4 ADD MSTORE PUSH2 0x629 DUP2 DUP6 PUSH2 0x5D6 JUMP JUMPDEST SWAP1 POP PUSH2 0x638 PUSH1 0x20 DUP4 ADD DUP5 PUSH2 0x555 JUMP JUMPDEST SWAP4 SWAP3 POP POP POP JUMP JUMPDEST PUSH1 0x0 DUP1 REVERT JUMPDEST PUSH1 0x0 DUP1 REVERT JUMPDEST PUSH32 0x4E487B7100000000000000000000000000000000000000000000000000000000 PUSH1 0x0 MSTORE PUSH1 0x41 PUSH1 0x4 MSTORE PUSH1 0x24 PUSH1 0x0 REVERT JUMPDEST PUSH2 0x681 DUP3 PUSH2 0x5C5 JUMP JUMPDEST DUP2 ADD DUP2 DUP2 LT PUSH8 0xFFFFFFFFFFFFFFFF DUP3 GT OR ISZERO PUSH2 0x6A0 JUMPI PUSH2 0x69F PUSH2 0x649 JUMP JUMPDEST JUMPDEST DUP1 PUSH1 0x40 MSTORE POP POP POP JUMP JUMPDEST PUSH1 0x0 PUSH2 0x6B3 PUSH2 0x4DE JUMP JUMPDEST SWAP1 POP PUSH2 0x6BF DUP3 DUP3 PUSH2 0x678 JUMP JUMPDEST SWAP2 SWAP1 POP JUMP JUMPDEST PUSH1 0x0 PUSH8 0xFFFFFFFFFFFFFFFF DUP3 GT ISZERO PUSH2 0x6DF JUMPI PUSH2 0x6DE PUSH2 0x649 JUMP JUMPDEST JUMPDEST PUSH2 0x6E8 DUP3 PUSH2 0x5C5 JUMP JUMPDEST SWAP1 POP PUSH1 0x20 DUP2 ADD SWAP1 POP SWAP2 SWAP1 POP JUMP JUMPDEST DUP3 DUP2 DUP4 CALLDATACOPY PUSH1 0x0 DUP4 DUP4 ADD MSTORE POP POP POP JUMP JUMPDEST PUSH1 0x0 PUSH2 0x717 PUSH2 0x712 DUP5 PUSH2 0x6C4 JUMP JUMPDEST PUSH2 0x6A9 JUMP JUMPDEST SWAP1 POP DUP3 DUP2 MSTORE PUSH1 0x20 DUP2 ADD DUP5 DUP5 DUP5 ADD GT ISZERO PUSH2 0x733 JUMPI PUSH2 0x732 PUSH2 0x644 JUMP JUMPDEST JUMPDEST PUSH2 0x73E DUP5 DUP3 DUP6 PUSH2 0x6F5 JUMP JUMPDEST POP SWAP4 SWAP3 POP POP POP JUMP JUMPDEST PUSH1 0x0 DUP3 PUSH1 0x1F DUP4 ADD SLT PUSH2 0x75B JUMPI PUSH2 0x75A PUSH2 0x63F JUMP JUMPDEST JUMPDEST DUP2 CALLDATALOAD PUSH2 0x76B DUP5 DUP3 PUSH1 0x20 DUP7 ADD PUSH2 0x704 JUMP JUMPDEST SWAP2 POP POP SWAP3 SWAP2 POP POP JUMP JUMPDEST PUSH1 0x0 PUSH1 0x20 DUP3 DUP5 SUB SLT ISZERO PUSH2 0x78A JUMPI PUSH2 0x789 PUSH2 0x4E8 JUMP JUMPDEST JUMPDEST PUSH1 0x0 DUP3 ADD CALLDATALOAD PUSH8 0xFFFFFFFFFFFFFFFF DUP2 GT ISZERO PUSH2 0x7A8 JUMPI PUSH2 0x7A7 PUSH2 0x4ED JUMP JUMPDEST JUMPDEST PUSH2 0x7B4 DUP5 DUP3 DUP6 ADD PUSH2 0x746 JUMP JUMPDEST SWAP2 POP POP SWAP3 SWAP2 POP POP JUMP JUMPDEST PUSH1 0x0 PUSH20 0xFFFFFFFFFFFFFFFFFFFFFFFFFFFFFFFFFFFFFFFF DUP3 AND SWAP1 POP SWAP2 SWAP1 POP JUMP JUMPDEST PUSH1 0x0 PUSH2 0x7E8 DUP3 PUSH2 0x7BD JUMP JUMPDEST SWAP1 POP SWAP2 SWAP1 POP JUMP JUMPDEST PUSH2 0x7F8 DUP2 PUSH2 0x7DD JUMP JUMPDEST DUP2 EQ PUSH2 0x803 JUMPI PUSH1 0x0 DUP1 REVERT JUMPDEST POP JUMP JUMPDEST PUSH1 0x0 DUP2 CALLDATALOAD SWAP1 POP PUSH2 0x815 DUP2 PUSH2 0x7EF JUMP JUMPDEST SWAP3 SWAP2 POP POP JUMP JUMPDEST PUSH1 0x0 PUSH1 0x20 DUP3 DUP5 SUB SLT ISZERO PUSH2 0x831 JUMPI PUSH2 0x830 PUSH2 0x4E8 JUMP JUMPDEST JUMPDEST PUSH1 0x0 PUSH2 0x83F DUP5 DUP3 DUP6 ADD PUSH2 0x806 JUMP JUMPDEST SWAP2 POP POP SWAP3 SWAP2 POP POP JUMP JUMPDEST PUSH1 0x0 DUP2 ISZERO ISZERO SWAP1 POP SWAP2 SWAP1 POP JUMP JUMPDEST PUSH2 0x85D DUP2 PUSH2 0x848 JUMP JUMPDEST DUP3 MSTORE POP POP JUMP JUMPDEST PUSH1 0x0 PUSH1 0x40 DUP3 ADD SWAP1 POP PUSH2 0x878 PUSH1 0x0 DUP4 ADD DUP6 PUSH2 0x854 JUMP JUMPDEST PUSH2 0x885 PUSH1 0x20 DUP4 ADD DUP5 PUSH2 0x555 JUMP JUMPDEST SWAP4 SWAP3 POP POP POP JUMP JUMPDEST PUSH32 0x596F75206861766520616C726561647920766F7465642E000000000000000000 PUSH1 0x0 DUP3 ADD MSTORE POP JUMP JUMPDEST PUSH1 0x0 PUSH2 0x8C2 PUSH1 0x17 DUP4 PUSH2 0x58A JUMP JUMPDEST SWAP2 POP PUSH2 0x8CD DUP3 PUSH2 0x88C JUMP JUMPDEST PUSH1 0x20 DUP3 ADD SWAP1 POP SWAP2 SWAP1 POP JUMP JUMPDEST PUSH1 0x0 PUSH1 0x20 DUP3 ADD SWAP1 POP DUP2 DUP2 SUB PUSH1 0x0 DUP4 ADD MSTORE PUSH2 0x8F1 DUP2 PUSH2 0x8B5 JUMP JUMPDEST SWAP1 POP SWAP2 SWAP1 POP JUMP JUMPDEST PUSH32 0x496E76616C69642063616E6469646174652049442E0000000000000000000000 PUSH1 0x0 DUP3 ADD MSTORE POP JUMP JUMPDEST PUSH1 0x0 PUSH2 0x92E PUSH1 0x15 DUP4 PUSH2 0x58A JUMP JUMPDEST SWAP2 POP PUSH2 0x939 DUP3 PUSH2 0x8F8 JUMP JUMPDEST PUSH1 0x20 DUP3 ADD SWAP1 POP SWAP2 SWAP1 POP JUMP JUMPDEST PUSH1 0x0 PUSH1 0x20 DUP3 ADD SWAP1 POP DUP2 DUP2 SUB PUSH1 0x0 DUP4 ADD MSTORE PUSH2 0x95D DUP2 PUSH2 0x921 JUMP JUMPDEST SWAP1 POP SWAP2 SWAP1 POP JUMP JUMPDEST PUSH32 0x4E487B7100000000000000000000000000000000000000000000000000000000 PUSH1 0x0 MSTORE PUSH1 0x32 PUSH1 0x4 MSTORE PUSH1 0x24 PUSH1 0x0 REVERT JUMPDEST PUSH32 0x4E487B7100000000000000000000000000000000000000000000000000000000 PUSH1 0x0 MSTORE PUSH1 0x11 PUSH1 0x4 MSTORE PUSH1 0x24 PUSH1 0x0 REVERT JUMPDEST PUSH1 0x0 PUSH2 0x9CD DUP3 PUSH2 0x4F2 JUMP JUMPDEST SWAP2 POP PUSH32 0xFFFFFFFFFFFFFFFFFFFFFFFFFFFFFFFFFFFFFFFFFFFFFFFFFFFFFFFFFFFFFFFF DUP3 SUB PUSH2 0x9FF JUMPI PUSH2 0x9FE PUSH2 0x993 JUMP JUMPDEST JUMPDEST PUSH1 0x1 DUP3 ADD SWAP1 POP SWAP2 SWAP1 POP JUMP JUMPDEST PUSH32 0x4E487B7100000000000000000000000000000000000000000000000000000000 PUSH1 0x0 MSTORE PUSH1 0x22 PUSH1 0x4 MSTORE PUSH1 0x24 PUSH1 0x0 REVERT JUMPDEST PUSH1 0x0 PUSH1 0x2 DUP3 DIV SWAP1 POP PUSH1 0x1 DUP3 AND DUP1 PUSH2 0xA51 JUMPI PUSH1 0x7F DUP3 AND SWAP2 POP JUMPDEST PUSH1 0x20 DUP3 LT DUP2 SUB PUSH2 0xA64 JUMPI PUSH2 0xA63 PUSH2 0xA0A JUMP JUMPDEST JUMPDEST POP SWAP2 SWAP1 POP JUMP JUMPDEST PUSH1 0x0 DUP2 SWAP1 POP DUP2 PUSH1 0x0 MSTORE PUSH1 0x20 PUSH1 0x0 KECCAK256 SWAP1 POP SWAP2 SWAP1 POP JUMP JUMPDEST PUSH1 0x0 PUSH1 0x20 PUSH1 0x1F DUP4 ADD DIV SWAP1 POP SWAP2 SWAP1 POP JUMP JUMPDEST PUSH1 0x0 DUP3 DUP3 SHL SWAP1 POP SWAP3 SWAP2 POP POP JUMP JUMPDEST PUSH1 0x0 PUSH1 0x8 DUP4 MUL PUSH2 0xACC PUSH32 0xFFFFFFFFFFFFFFFFFFFFFFFFFFFFFFFFFFFFFFFFFFFFFFFFFFFFFFFFFFFFFFFF DUP3 PUSH2 0xA8F JUMP JUMPDEST PUSH2 0xAD6 DUP7 DUP4 PUSH2 0xA8F JUMP JUMPDEST SWAP6 POP DUP1 NOT DUP5 AND SWAP4 POP DUP1 DUP7 AND DUP5 OR SWAP3 POP POP POP SWAP4 SWAP3 POP POP POP JUMP JUMPDEST PUSH1 0x0 DUP2 SWAP1 POP SWAP2 SWAP1 POP JUMP JUMPDEST PUSH1 0x0 PUSH2 0xB13 PUSH2 0xB0E PUSH2 0xB09 DUP5 PUSH2 0x4F2 JUMP JUMPDEST PUSH2 0xAEE JUMP JUMPDEST PUSH2 0x4F2 JUMP JUMPDEST SWAP1 POP SWAP2 SWAP1 POP JUMP JUMPDEST PUSH1 0x0 DUP2 SWAP1 POP SWAP2 SWAP1 POP JUMP JUMPDEST PUSH2 0xB2D DUP4 PUSH2 0xAF8 JUMP JUMPDEST PUSH2 0xB41 PUSH2 0xB39 DUP3 PUSH2 0xB1A JUMP JUMPDEST DUP5 DUP5 SLOAD PUSH2 0xA9C JUMP JUMPDEST DUP3 SSTORE POP POP POP POP JUMP JUMPDEST PUSH1 0x0 SWAP1 JUMP JUMPDEST PUSH2 0xB56 PUSH2 0xB49 JUMP JUMPDEST PUSH2 0xB61 DUP2 DUP5 DUP5 PUSH2 0xB24 JUMP JUMPDEST POP POP POP JUMP JUMPDEST JUMPDEST DUP2 DUP2 LT ISZERO PUSH2 0xB85 JUMPI PUSH2 0xB7A PUSH1 0x0 DUP3 PUSH2 0xB4E JUMP JUMPDEST PUSH1 0x1 DUP2 ADD SWAP1 POP PUSH2 0xB67 JUMP JUMPDEST POP POP JUMP JUMPDEST PUSH1 0x1F DUP3 GT ISZERO PUSH2 0xBCA JUMPI PUSH2 0xB9B DUP2 PUSH2 0xA6A JUMP JUMPDEST PUSH2 0xBA4 DUP5 PUSH2 0xA7F JUMP JUMPDEST DUP2 ADD PUSH1 0x20 DUP6 LT ISZERO PUSH2 0xBB3 JUMPI DUP2 SWAP1 POP JUMPDEST PUSH2 0xBC7 PUSH2 0xBBF DUP6 PUSH2 0xA7F JUMP JUMPDEST DUP4 ADD DUP3 PUSH2 0xB66 JUMP JUMPDEST POP POP JUMPDEST POP POP POP JUMP JUMPDEST PUSH1 0x0 DUP3 DUP3 SHR SWAP1 POP SWAP3 SWAP2 POP POP JUMP JUMPDEST PUSH1 0x0 PUSH2 0xBED PUSH1 0x0 NOT DUP5 PUSH1 0x8 MUL PUSH2 0xBCF JUMP JUMPDEST NOT DUP1 DUP4 AND SWAP2 POP POP SWAP3 SWAP2 POP POP JUMP JUMPDEST PUSH1 0x0 PUSH2 0xC06 DUP4 DUP4 PUSH2 0xBDC JUMP JUMPDEST SWAP2 POP DUP3 PUSH1 0x2 MUL DUP3 OR SWAP1 POP SWAP3 SWAP2 POP POP JUMP JUMPDEST PUSH2 0xC1F DUP3 PUSH2 0x57F JUMP JUMPDEST PUSH8 0xFFFFFFFFFFFFFFFF DUP2 GT ISZERO PUSH2 0xC38 JUMPI PUSH2 0xC37 PUSH2 0x649 JUMP JUMPDEST JUMPDEST PUSH2 0xC42 DUP3 SLOAD PUSH2 0xA39 JUMP JUMPDEST PUSH2 0xC4D DUP3 DUP3 DUP6 PUSH2 0xB89 JUMP JUMPDEST PUSH1 0x0 PUSH1 0x20 SWAP1 POP PUSH1 0x1F DUP4 GT PUSH1 0x1 DUP2 EQ PUSH2 0xC80 JUMPI PUSH1 0x0 DUP5 ISZERO PUSH2 0xC6E JUMPI DUP3 DUP8 ADD MLOAD SWAP1 POP JUMPDEST PUSH2 0xC78 DUP6 DUP3 PUSH2 0xBFA JUMP JUMPDEST DUP7 SSTORE POP PUSH2 0xCE0 JUMP JUMPDEST PUSH1 0x1F NOT DUP5 AND PUSH2 0xC8E DUP7 PUSH2 0xA6A JUMP JUMPDEST PUSH1 0x0 JUMPDEST DUP3 DUP2 LT ISZERO PUSH2 0xCB6 JUMPI DUP5 DUP10 ADD MLOAD DUP3 SSTORE PUSH1 0x1 DUP3 ADD SWAP2 POP PUSH1 0x20 DUP6 ADD SWAP5 POP PUSH1 0x20 DUP2 ADD SWAP1 POP PUSH2 0xC91 JUMP JUMPDEST DUP7 DUP4 LT ISZERO PUSH2 0xCD3 JUMPI DUP5 DUP10 ADD MLOAD PUSH2 0xCCF PUSH1 0x1F DUP10 AND DUP3 PUSH2 0xBDC JUMP JUMPDEST DUP4 SSTORE POP JUMPDEST PUSH1 0x1 PUSH1 0x2 DUP9 MUL ADD DUP9 SSTORE POP POP POP JUMPDEST POP POP POP POP POP POP JUMP INVALID LOG2 PUSH5 0x6970667358 0x22 SLT KECCAK256 0x28 JUMPI PUSH7 0x348C122D901858 0xE4 0xD9 SWAP16 0xEB PUSH28 0x206C65A4193028C375ECDA3D0F35D1B3E464736F6C63430008120033 "
				},
				"gasEstimates": {
					"creation": {
						"codeDepositCost": "671600",
						"executionCost": "702",
						"totalCost": "672302"
					},
					"external": {
						"addCandidate(string)": "infinite",
						"candidates(uint256)": "infinite",
						"getCandidateCount()": "2445",
						"getVoteCount(uint256)": "infinite",
						"vote(uint256)": "infinite",
						"voters(address)": "5148"
					}
				},
				"methodIdentifiers": {
					"addCandidate(string)": "462e91ec",
					"candidates(uint256)": "3477ee2e",
					"getCandidateCount()": "30a56347",
					"getVoteCount(uint256)": "b2c2f2e8",
					"vote(uint256)": "0121b93f",
					"voters(address)": "a3ec138d"
				}
			},
			"storageLayout": {
				"storage": [
					{
						"astId": 15,
						"contract": "a.sol:VotingSystem",
						"label": "candidates",
						"offset": 0,
						"slot": "0",
						"type": "t_array(t_struct(Candidate)6_storage)dyn_storage"
					},
					{
						"astId": 20,
						"contract": "a.sol:VotingSystem",
						"label": "voters",
						"offset": 0,
						"slot": "1",
						"type": "t_mapping(t_address,t_struct(Voter)11_storage)"
					}
				],
				"types": {
					"t_address": {
						"encoding": "inplace",
						"label": "address",
						"numberOfBytes": "20"
					},
					"t_array(t_struct(Candidate)6_storage)dyn_storage": {
						"base": "t_struct(Candidate)6_storage",
						"encoding": "dynamic_array",
						"label": "struct VotingSystem.Candidate[]",
						"numberOfBytes": "32"
					},
					"t_bool": {
						"encoding": "inplace",
						"label": "bool",
						"numberOfBytes": "1"
					},
					"t_mapping(t_address,t_struct(Voter)11_storage)": {
						"encoding": "mapping",
						"key": "t_address",
						"label": "mapping(address => struct VotingSystem.Voter)",
						"numberOfBytes": "32",
						"value": "t_struct(Voter)11_storage"
					},
					"t_string_storage": {
						"encoding": "bytes",
						"label": "string",
						"numberOfBytes": "32"
					},
					"t_struct(Candidate)6_storage": {
						"encoding": "inplace",
						"label": "struct VotingSystem.Candidate",
						"members": [
							{
								"astId": 3,
								"contract": "a.sol:VotingSystem",
								"label": "name",
								"offset": 0,
								"slot": "0",
								"type": "t_string_storage"
							},
							{
								"astId": 5,
								"contract": "a.sol:VotingSystem",
								"label": "voteCount",
								"offset": 0,
								"slot": "1",
								"type": "t_uint256"
							}
						],
						"numberOfBytes": "64"
					},
					"t_struct(Voter)11_storage": {
						"encoding": "inplace",
						"label": "struct VotingSystem.Voter",
						"members": [
							{
								"astId": 8,
								"contract": "a.sol:VotingSystem",
								"label": "hasVoted",
								"offset": 0,
								"slot": "0",
								"type": "t_bool"
							},
							{
								"astId": 10,
								"contract": "a.sol:VotingSystem",
								"label": "candidateId",
								"offset": 0,
								"slot": "1",
								"type": "t_uint256"
							}
						],
						"numberOfBytes": "64"
					},
					"t_uint256": {
						"encoding": "inplace",
						"label": "uint256",
						"numberOfBytes": "32"
					}
				}
			},
			"userdoc": {
				"kind": "user",
				"methods": {},
				"version": 1
			}
		}
	}
}